:1000000000000320D101000029E2000071A00000DF
:10001000E1E1000079A0000081A00000E1E1000022
:10002000E1E10000E1E10000E1E1000001A10000E8
:1000300029E20000E1E1000029E20000EDA8000053
:1000400029E2000029E2000029E2000029E2000084
:1000500029E2000029E2000029E2000029E2000074
:1000600029E2000029E2000029E2000029E2000064
:1000700029E2000029E2000029E2000029E2000054
:1000800029E2000029E2000029E2000029E2000044
:1000900029E2000029E2000029E2000029E2000034
:1000A000F1DC0000FDDC000029E2000029E2000094
:1000B00029E2000029E2000029E2000059F20000D4
:1000C00029E20000D513010029E2000055190100C2
:1000D00029E200004D1A010029E2000029E2000097
:1000E00029E2000029E2000029E2000029E20000E4
:1000F00029E2000029E2000029E2000029E20000D4
:1001000029E2000029E2000029E2000029E20000C3
:1001100029E20000D5F4000029E2000029E20000F5
:1001200029E2000029E2000029E2000029E20000A3
:1001300029E2000029E2000029E2000029E2000093
:1001400029E2000029E20000451B010029E200002D
:1001500029E2000029E2000029E2000029E2000073
:1001600029E2000029E2000009DD000029E2000088
:1001700029E2000029E2000029E2000029E2000053
:1001800029E2000029E2000029E2000029E2000043
:1001900029E2000029E200003D1C010029E20000E4
:1001A00029E2000029E2000029E2000029E2000023
:1001B00029E2000029E2000029E2000029E2000013
:1001C00029E2000029E2000029E2000029E2000003
:1001D0005C4B4CF2205210B51A804DF628121A8052
:1001E00000BF00BF0EF024F8574B4FF030621A608A
:1001F000564A9A60564ADA60564B4FF470021A60BB
:10020000554B564A1A60564A136813F4807304D14A
:1002100054490B604FF4A8531360534B1A781107DD
:1002200003D51A7842F008021A70504B5049AA229E
:100230001A70504A504B8B4204D252F8040F43F8C4
:10024000040BF8E74D4B4E4900228B4202D243F893
:10025000042BFAE74B494C4A002352F8230041F89B
:1002600023000133742BF8D1484B494A802103F80D
:10027000011B9342FBD1474B424A1A60464B8A22EC
:100280001A70A3F5805324225A70A0221A709A790A
:100290009207FCD59A79D406FCD4404A937903F0AE
:1002A0000C03082BFAD13E4B60221A7002331A78E5
:1002B000802AFCD1394B00221A714E225A719A7948
:1002C0009006FCD59979354A4906FBD5354B364918
:1002D00019600821596020231370937903F00C03EF
:1002E0000C2BFAD1314B324A1A60324B324A1A6027
:1002F00000225A60072243F8042C304AC3F80C2D20
:1003000062B60EF083FB174B1B68DA0705D52C4845
:100310000EF02CF92B4B2C4A1A602C4B1B785B06E9
:1003200009D5284C284B22689A4204D124480EF063
:100330001DF90023236011F051FD0DF07FFF10F037
:10034000CBF8FEE70E20054030800440823F0400D9
:100350000100002B88ED00E0002008E0030000858C
:1003600010D0034014D0034002D0074000E0074003
:10037000B018FF1FAC5E01003007FF1FB018FF1F51
:10038000484900200002FF1F0000000000E400E0D8
:1003900064E400E008ED00E0005006400040064044
:1003A00001E007404480044000000703048004404B
:1003B000C010050014E000E07FA903000000202029
:1003C000D5BEE15A1CE00340A5C3945A00F0074093
:1003D000FFFFFFFFFFFFFFFFFFFFFFFFFFFFFFFF2D
:1003E000FFFFFFFFFFFFFFFFFFFFFFFFFFFFFFFF1D
:1003F000FFFFFFFFFFFFFFFFFFFFFFFFFFFFFFFF0D
:10040000FFFFFFFFFFFFFFFFFFFFFFFFDEF9FFFF23
:1004100010B5054C237833B9044B13B10448AFF33E
:1004200000800123237010BDB018FF1F00000000E2
:10043000B05E0100084B10B51BB108490848AFF386
:1004400000800848036803B910BD074B002BFBD0A0
:10045000BDE81040184700BF00000000B418FF1F9F
:10046000B05E0100B018FF1F0000000010B520238F
:1004700083F3118810488368002B19DD0F49104C55
:100480000B681048012201330B60227002700EF0DD
:1004900049FA0D4B0D4A186013680D49C31A0B60D9
:1004A0000023106083F31188BDE8104009F032BECC
:1004B0000AF062F8E2E700BF0009FF1F480F0020C2
:1004C000480000204809FF1FACEEFF1F3C19FF1F2A
:1004D000F43C0020012120200EF00ABA0021202047
:1004E0000EF006BA0121014807F07CBFACEFFF1FF8
:1004F0000121052008B50EF00FFA002105200EF0AD
:10050000F7F964200AF026F9012105200EF0F0F930
:1005100064200AF01FF9002105200EF0E9F9F0E748
:1005200010B582B000240094304B3148892240F647
:10053000C8210AF0C7F800942E4B2F4841224FF4EF
:1005400084710AF0BFF800942C4B2D48412242F6EA
:1005500050010AF0B7F800942A4B2B48412240F68C
:10056000C8210AF0AFF80094284B294841224FF4E3
:1005700099610AF0A7F80094264B274841224FF4CE
:1005800032710AF09FF80094244B254841224FF421
:1005900099610AF097F80094224B234841224FF4C6
:1005A00032710AF08FF80094204B214841224FF419
:1005B00084710AF087F800941E4B1F4841224FF4C3
:1005C00032710AF07FF800941C4B1D4841224FF411
:1005D000A4710AF077F800941A4B1B4841224FF49B
:1005E000A4710AF06FF802B010BD00BF5174000092
:1005F00070000020F1040000183E0020FD580000AB
:1006000098120020154100008023FF1F0107000001
:1006100010FAFF1F59330000E81AFF1FDD06000023
:10062000281EFF1F35360000D00F0020A106000055
:10063000A00B00204D06000060F0FF1FE90D000038
:10064000A019FF1FB930000010EDFF1F10B50121E8
:1006500008200EF061F9012108200EF049F90D4C37
:1006600001200AF077F80C4809F006FE0A4809F064
:100670000DFE0A4809F05EFF0EF054F90021082033
:100680000EF036F920680EF071F9012108200EF005
:100690002FF9E5E7203B00201808FF1F0009FF1F86
:1006A0000121202008B50EF037F9002120200EF09E
:1006B0001FF901200AF04EF8074809F03BFF01211D
:1006C00020200EF015F932200AF044F800212020F5
:1006D0000EF00EF9EDE700BF7009FF1F0121102099
:1006E00008B50EF019F9002110200EF001F90348A9
:1006F00007F0A8FE01200AF02DF8F8E7303D0020B1
:100700002DE9F04F012189B006200EF005F90121F5
:1007100007200EF001F91E491E48DFF88CA0DFF813
:100720008C90DFF88C801C4F09F086FA1B49194821
:1007300009F084FA1A49174809F084FA194809F0AF
:100740009BFDD9F80040DAF80050D8F80060D7F8DF
:1007500000B0144809F09AFD012009F0FBFF8DE874
:1007600050082A4621464FF4AF730A4809F092F91F
:10077000002406AA05A907AB06480594069409F0CB
:10078000AFF9079A0599034809F0E6F9D6E700BFE3
:10079000A1080000B4F7FF1F680000201109000045
:1007A000B5070000800AFF1F902FFF1FF830FF1FC2
:1007B000D4F5FF1F144B1B7A012B10B51AD0022B56
:1007C00005D1002240F2DC5110480AF0B5F810487B
:1007D00009F052FD0F4B0E4800241C7009F056FD25
:1007E0000B4809F049FD0C4B09481C70BDE810404E
:1007F00009F04CBD002107200EF07AF800210620F8
:100800000EF076F8E3E700BF403F0020743D002083
:100810001C09FF1FF9ECFF1F3C3C002010B5034BE7
:10082000036004460DF038F8204610BD3058010032
:1008300010B582B0694613480AF0BCF8009BD3B1EA
:1008400002A9002441F8044D0F480AF069FB0F4843
:1008500009F012FD0E4B019A0C481A6009F016FDC2
:1008600023460A2201990B480FF088FE09480FF031
:1008700075FE02B010BD084908480AF039FC02B004
:1008800010BD00BFB82EFF1F6830FF1FE008FF1F1C
:100890002C3D00204C0EFF1F903B0100300F00202C
:1008A00038B5154809F0E8FC144B134800251D70B5
:1008B00009F0ECFC104809F0DFFC114B0E48012454
:1008C0001C7009F0E3FC0F4B2146186809F0E2F9AF
:1008D0000D4B197AA1420AD0022907D12A464FF4BA
:1008E0002A710A48BDE838400AF026B838BD07200A
:1008F000BDE838400DF0FCBF1C09FF1F3C3C002048
:10090000F9ECFF1F1008FF1F403F0020743D00203E
:1009100010B51D4809F0B0FC1C4B1B4801241C708D
:1009200009F0B4FC184809F0A7FC194B16481C70D4
:1009300009F0ACFC174B2146186809F0ABF91648D2
:1009400007F040FDD8B9154B197A012912D00229B8
:100950000FD1134B13481988002209F0EDFF5020E6
:1009600009F0F8FE0022FA210E48BDE8104009F017
:10097000E3BF10BD0620BDE810400DF0B9BF022155
:10098000054807F015FDDEE71C09FF1FF9ECFF1F06
:100990003C3C0020580AFF1FACEFFF1F403F0020E7
:1009A0006C09FF1F743D0020F8B50C4D012304466F
:1009B00043750026284609F05FFC2846267509F095
:1009C00065FC0DF0AFFF0746284609F055FC67604F
:1009D000284609F05BFCA6752662F8BD480AFF1F91
:1009E00000B52023B3B083F31188A9488368002B96
:1009F00040F3E58109F088FD002383F31188A549C0
:100A00000AA80FF091FEA3490EA80FF08DFEA14990
:100A100012A80FF089FE9F4916A80FF085FE9D4988
:100A20001AA80FF081FE9B491EA80FF07DFE994980
:100A300022A80FF079FE974926A80FF075FE954978
:100A40002AA80FF071FE6946934809F0B3FF009B96
:100A5000002B00F05B8191490AA80FF001FF694665
:100A60008F4809F0A7FF009B002B00F05B818B49AA
:100A70000EA80FF0F5FE69468A4809F09BFF009B1F
:100A8000002B00F05B81854912A80FF0E9FE694652
:100A9000854809F08FFF009B002B00F05B817F49A8
:100AA00016A80FF0DDFE6946804809F083FF009B21
:100AB000002B00F05B8179491EA80FF0D1FE69463A
:100AC0007B4809F077FF009B002B00F05B817349A6
:100AD00022A80FF0C5FE6946764809F06BFF009B1F
:100AE000002B00F05B816D4926A80FF0B9FE694626
:100AF000714809F05FFF009B002B40F05B816F495C
:100B00002AA80FF0ADFE01A96D480AF0E3F80A2209
:100B100001992EA80FF04EFE2EA91AA80FF098FEEC
:100B20002EA80FF0C1FD0A9A6649674808F000FE3A
:100B30000E9A6649644808F0FBFD129A64496248BF
:100B400008F0F6FD169A63495F4808F0F1FD1A9A1D
:100B500061495D4808F0ECFD1E9A60495A4808F06A
:100B6000E7FD229A5E49584808F0E2FD269A5D4961
:100B7000554808F0DDFD2A9A5B49534808F0D8FD36
:100B800002AA5249594808F0B7F8029B584A4D4901
:100B90005648003318BF0123137003AA08F0ACF8BD
:100BA000039B544A4A495148003318BF012313702C
:100BB00004AA08F0A1F8049B4F4A46494B48003369
:100BC00018BF0123137005AA08F096F8059B4B4A3D
:100BD00041494648003318BF0123137006AA08F0A4
:100BE0008BF80699464807F083FB07AA3B493F4824
:100BF00008F082F807994248003118BF012107F038
:100C0000DFFB08AA3649394808F076F808993C48CD
:100C1000003118BF012107F0D7FB09AA3149334839
:100C200008F06AF809993648003118BF012107F029
:100C3000D1FB2EAA2C492D4808F05EF82E99304899
:100C4000003118BF012107F0C7FB2E492E480AF0DA
:100C50004FFA2AA80FF028FD26A80FF025FD22A89C
:100C60000FF022FD1EA80FF01FFD1AA80FF01CFDAB
:100C700016A80FF019FD12A80FF016FD0EA80FF020
:100C800013FD0AA80FF010FD33B05DF804FB00BFA0
:100C90007009FF1F00510100FCF8FF1F7C56010086
:100CA00014F9FF1F2CF9FF1F103D002048F9FF1F0A
:100CB00060F9FF1F78F9FF1F90F9FF1F6C560100C4
:100CC000380B00209C3B0100B43B0100CC3B0100F1
:100CD000E03B0100F43B0100183C01002C3C01000A
:100CE0004C3C01006C3C0100983C0100C03C010000
:100CF0006430FF1F3C3F0020F8ECFF1F40F6FF1F51
:100D0000ACEFFF1FD83C010044F6FF1F2D490AA895
:100D10000FF0A6FD69462C4809F04CFE009B002B05
:100D20007FF4A5AE27490EA80FF09AFD6946274823
:100D300009F040FE009B002B7FF4A5AE214912A8CC
:100D40000FF08EFD6946224809F034FE009B002B0F
:100D50007FF4A5AE1B4916A80FF082FD69461D4819
:100D600009F028FE009B002B7FF4A5AE15491EA8B4
:100D70000FF076FD6946184809F01CFE009B002B19
:100D80007FF4A5AE0F4922A80FF06AFD694613480B
:100D900009F010FE009B002B7FF4A5AE094926A8A0
:100DA0000FF05EFD69460E4809F004FE009B002B23
:100DB0003FF4A5AE0B492AA80FF052FDA3E609F0B7
:100DC000DBFB17E66C56010014F9FF1F2CF9FF1F1F
:100DD000103D002048F9FF1F60F9FF1F78F9FF1F41
:100DE00090F9FF1F7C5601002DE9F84F0320DFF832
:100DF000C8802A4CDFF8AC9009F0ACFCC246284809
:100E0000284D09F039FA2648D8F80070266809F00C
:100E10003DFA012009F09EFC234809F02DFA99F8CB
:100E200000B0214809F032FABBF1000FE7D01E48AC
:100E300009F022FA00231C482B7009F027FA0A2136
:100E40001A480FF083F81A480FF088FBDAF80030E0
:100E500053B901210F200DF04BFD23688BB9002100
:100E60000F200DF045FDCAE74FF47A7000FB07F044
:100E7000104B00F2E730A3FB0030800909F06AFC58
:100E8000E7E74FF47A7000FB06F00A4B00F2E73018
:100E9000A3FB0030800909F05DFCE0E74C0F002067
:100EA0001808FF1F74F7FF1F1C09FF1FE03C01001B
:100EB0004C0EFF1FD34D621058EEFF1F70B51D4E34
:100EC0001D4C1E4D304609F0D7F90D211C480FF07E
:100ED0003DF81C4B204619680FF090FB0F211A4873
:100EE0000FF034F8194B204619680FF087FB2046A5
:100EF0000FF034FB304609F0C9F9284609F0BCF977
:100F00000D2113480FF022F8124B204619680FF0FC
:100F100075FB062110480FF019F8104B2046196890
:100F20000A2200230FF02AFB2846BDE8704009F092
:100F3000ADB900BFCC09FF1F4C0EFF1FDC09FF1F1E
:100F4000EC3C0100043B0020FC3C0100E0F8FF1FEA
:100F50000C3D0100800E00201C3D01002C3D0020B6
:100F600008B5064809F01CF8282105480EF0EEFFE8
:100F70000448BDE808400FF0F1BA00BF90F7FF1F2A
:100F8000243D01004C0EFF1F08B5064809F020F86B
:100F90002A2105480EF0DAFF0448BDE808400FF0AA
:100FA000DDBA00BF90F7FF1F503D01004C0EFF1F40
:100FB00008B5202383F3118807488368002B08DDD8
:100FC00009F0A2FA002383F31188044B0C221A7053
:100FD00008BD09F0D1FAF3E77009FF1F1809FF1FD8
:100FE000FFF7E6BFFFF7E4BF08B5202383F31188BE
:100FF00007488368002B08DD09F086FA002383F395
:101000001188044B06221A7008BD09F0B5FAF3E7FF
:101010007009FF1F1809FF1F08B5202383F31188EB
:1010200007488368002B08DD09F06EFA002383F37C
:101030001188044B05221A7008BD09F09DFAF3E7E8
:101040007009FF1F1809FF1F08B5202383F31188BB
:1010500009488368002B0CDD09F056FA002383F35E
:101060001188064B06480B221A70BDE8084009F0AB
:1010700069BD09F081FAEFE77009FF1F1809FF1F2A
:101080007C3D010008B5202383F31188084883685C
:10109000002B0ADD09F038FA002383F31188054993
:1010A0000548BDE808400AF023B809F065FAF1E701
:1010B0007009FF1F0051010044F6FF1FFFF7E2BF58
:1010C000FFF7E0BFFFF7DEBFFFF7DCBFFFF7DABFD8
:1010D00008B5202383F3118809488368002B0CDDB1
:1010E00009F012FA002383F31188064B0648032205
:1010F0001A70BDE8084009F025BD09F03DFAEFE798
:101100007009FF1F1809FF1F843D010000B520234F
:1011100083B083F3118809488368002B0BDD09F045
:10112000F3F9002383F31188054801A909F042FC73
:1011300003B05DF804FB09F01FFAF0E77009FF1F28
:101140003C40002008B5202383F3118809488368B8
:10115000002B0CDD09F0D8F9002383F31188064B2E
:1011600006480D221A70BDE8084009F0EBBC09F0F2
:1011700003FAEFE77009FF1F1809FF1F8C3D0100FC
:1011800008B5202383F3118809488368002B0CDD00
:1011900009F0BAF9002383F31188064B06480822A8
:1011A0001A70BDE8084009F0CDBC09F0E5F9EFE799
:1011B0007009FF1F1809FF1F943D0100FFF7E0BFF2
:1011C000FFF7DEBF08B5202383F311880948836841
:1011D000002B0CDD09F098F9002383F31188064BEE
:1011E000064809221A70BDE8084009F0ABBC09F0B6
:1011F000C3F9EFE77009FF1F1809FF1F9C3D0100AD
:1012000008B5202383F3118809488368002B0CDD7F
:1012100009F07AF9002383F31188064B06480A2265
:101220001A70BDE8084009F08DBC09F0A5F9EFE798
:101230007009FF1F1809FF1FA43D010008B52023F6
:1012400083F3118809488368002B0CDD09F05CF9F1
:10125000002383F31188064B06480F221A70BDE85D
:10126000084009F06FBC09F087F9EFE77009FF1F2C
:101270001809FF1FAC3D010008B5202383F3118836
:101280000C488368002B12DD09F03EF9002383F33C
:101290001188094B094804221A7008F0EDFF084B29
:1012A000064801221A70BDE8084008F0EFBF09F0B7
:1012B00063F9E9E77009FF1F1809FF1F1C09FF1FE9
:1012C000C83C002010B5202383F311880B488368A5
:1012D000002B10DD09F018F9002484F31188084868
:1012E00008F0CAFF074B06481C7008F0CFFF064BFA
:1012F0000C221A7010BD09F03FF9EBE77009FF1FCF
:101300001C09FF1F84F3FF1F1809FF1F10B52023BE
:1013100083F311880C488368002B11DD09F0F4F881
:10132000002484F31188094B094803221A7008F03D
:10133000A3FF084B06481C70BDE8104008F0A6BF8C
:1013400009F01AF9EAE700BF7009FF1F1809FF1F2B
:101350001C09FF1FC83C002008B5202383F3118817
:101360000D488368002B13DD09F0CEF8002383F3CA
:1013700011880A4B0A480C220A211A700EF0E6FD69
:1013800008480FF0EBF80848BDE8084009F0DABB60
:1013900009F0F2F8E8E700BF7009FF1F1809FF1F06
:1013A000B43D01004C0EFF1FC03D010008B52023D5
:1013B00083F311880D488368002B13DD09F0A4F82E
:1013C000002383F311880A4B0A4806220A211A7067
:1013D0000EF0BCFD08480FF0C1F80848BDE8084011
:1013E00009F0B0BB09F0C8F8E8E700BF7009FF1FBB
:1013F0001809FF1FC83D01004C0EFF1FD43D01001E
:10140000F8B50126867505460DF08CFA0D4C074699
:10141000204608F031FF2046AF6008F037FF002378
:101420006B75204608F028FF20462E7508F02EFF29
:10143000082105480EF08AFD0448BDE8F8400FF089
:101440008DB800BF480AFF1FDC3D01004C0EFF1F96
:1014500000B5202383B083F311880B488368002BE9
:101460000FDD09F051F8002383F31188074801A923
:1014700009F030FC0199064809F052FC03B05DF810
:1014800004FB09F079F8ECE77009FF1F9C0F0020BE
:10149000500F002000B5202383B083F311880B4840
:1014A0008368002B0FDD09F02FF8002383F31188E8
:1014B000074801A909F00EFC0199064809F030FC23
:1014C00003B05DF804FB09F057F8ECE77009FF1F63
:1014D0009C0F0020680F002010B5202382B083F3FA
:1014E000118810488368002B19DD09F00DF80024DD
:1014F00084F311880C4801A909F05CFA019B63B1DF
:1015000021460A4809F07CFA094808F0B5FE094B63
:10151000074801221A7008F0B9FE02B010BD09F0A8
:101520002BF8E2E77009FF1F1C0D0020340D00208E
:101530001C09FF1F4CF0FF1F10B5202382B083F35E
:10154000118810488368002B18DD08F0DDFF0024A7
:1015500084F311880C4801A909F02CFA019B5BB1B6
:101560002146094809F04CFA084808F085FE084B66
:1015700006481C7008F08AFE02B010BD08F0FCFF9F
:10158000E3E700BF7009FF1F1C0D00201C09FF1FAF
:101590004CF0FF1F10B5202383F311880D4883689A
:1015A000002B14DD08F0B0FF002484F311880A48F2
:1015B00008F062FE094B08481C7008F067FE084BF3
:1015C00008480C22BDE810401A7009F0BBBA08F0B8
:1015D000D3FFE7E77009FF1F1C09FF1F880E0020DB
:1015E0001809FF1FC03D010010B5202383F31188A7
:1015F0000D488368002B14DD08F086FF002484F377
:1016000011880A4B0A4808221A7008F035FE094B67
:1016100007481C7008F03AFE0748BDE8104009F082
:1016200091BA08F0A9FFE7E77009FF1F1809FF1F2B
:101630001C09FF1FC83C0020943D010010B5202369
:1016400083F311880D488368002B14DD08F05CFFDC
:10165000002484F311880A4B0A480C221A7008F0FF
:101660000BFE094B07481C7008F010FE0748BDE848
:10167000104009F067BA08F07FFFE7E77009FF1F25
:101680001809FF1F1C09FF1FC83C0020C03D0100B6
:1016900008B5202383F311880E488368002B15DDDD
:1016A00008F032FF002383F311880B4B0B480D2207
:1016B0001A7008F0E1FD0A4B084801221A7008F080
:1016C000E5FD0848BDE8084009F03CBA08F054FFC1
:1016D000E6E700BF7009FF1F1809FF1F1C09FF1F65
:1016E000C83C00208C3D010010B5202383F31188F5
:1016F0000C488368002B12DD08F006FF002484F3F9
:101700001188094808F0B8FD084B07481C7008F01C
:10171000BDFD21460648BDE8104009F071B908F04A
:101720002BFFE9E77009FF1F1C09FF1F84F3FF1F50
:10173000783D002008B5202383F311880F48836883
:10174000002B17DD08F0E0FE002383F311880C4B1B
:101750000C4806220A211A700EF0F8FB0A480EF017
:10176000FDFE0A4809F0EEF909490A4A01230B7007
:10177000137008BD08F000FFE4E700BF7009FF1F09
:101780001809FF1FC83D01004C0EFF1FD43D01008A
:10179000D8F9FF1F4DF0FF1F00B5202383B083F35E
:1017A00011880D488368002B12DD08F0ADFE002380
:1017B00083F31188094801A909F08CFA019B0748B5
:1017C00001331946019309F0ABFA03B05DF804FB4D
:1017D00008F0D2FEE9E700BF7009FF1F94FFFF1F6A
:1017E00000B5202383B083F311880D488368002B54
:1017F00012DD08F089FE002383F31188094801A94E
:1018000009F068FA019B074801331946019309F072
:1018100087FA03B05DF804FB08F0AEFEE9E700BF0D
:101820007009FF1FACFFFF1F00B5202383B083F3B7
:1018300011880D488368002B12DD08F065FE002337
:1018400083F31188094801A909F044FA019B07486C
:1018500001331946019309F063FA03B05DF804FB04
:1018600008F08AFEE9E700BF7009FF1F7CEEFF1F4A
:1018700010B5202388B083F3118825488368002B96
:1018800043DD08F041FE002484F31188214802A9B9
:1018900009F090F8029B002B31D021461E4809F038
:1018A000AFF821461D4809F0ABF81D491D4809F065
:1018B0001FFC07AA06AB0192009304AA05AB03A97B
:1018C000022007F0D9FB042803D01749154809F076
:1018D0000FFC0399154809F023FA0699144809F0FA
:1018E0001FFA0799134809F01BFA0499124809F0E6
:1018F00017FA0599114809F013FA08B010BD012133
:10190000044809F07DF808B010BD08F035FEB8E7CE
:101910007009FF1F282FFF1F102FFF1F402FFF1FD1
:1019200000510100B40F0020E83D0100943F002069
:10193000AC3F0020C43F0020DC3F0020F43F0020EB
:1019400010B5202388B083F3118821488368002BC9
:101950003ADD08F0D9FD002484F311881D4802A95E
:1019600009F028F8029B4BB321461B4809F048F8C0
:1019700021461A4809F044F819491A4809F0B8FBF9
:1019800007AA06AB0192009304AA05AB03A90120A4
:1019900007F072FB042803D01349124809F0A8FB92
:1019A0000399124809F0BCF90499114809F0B8F9F3
:1019B0000599104809F0B4F908B010BD0121054897
:1019C00009F01EF808B010BD08F0D6FDC1E700BF51
:1019D0007009FF1F102FFF1F282FFF1F402FFF1F11
:1019E00000510100B40F0020E83D0100943F0020A9
:1019F000DC3F0020F43F002010B5202388B083F3A3
:101A0000118821488368002B3ADD08F07DFD002411
:101A100084F311881D4802A908F0CCFF029B4BB348
:101A200021461B4808F0ECFF21461A4808F0E8FF61
:101A300019491A4809F05CFB07AA06AB019200930A
:101A4000204605AB04AA03A907F016FB042803D01F
:101A50001349124809F04CFB0399124809F060F948
:101A60000499114809F05CF90599104809F058F9F2
:101A700008B010BD0121054808F0C2FF08B010BD34
:101A800008F07AFDC1E700BF7009FF1F402FFF1F5C
:101A9000102FFF1F282FFF1F00510100B40F00203F
:101AA000E83D0100943F0020DC3F0020F43F00208F
:101AB00010B5202383F311880F488368002B17DDAE
:101AC00008F022FD002383F311880C4808F0D4FBB2
:101AD0000B4B0A4801241C7008F0D8FB074808F09B
:101AE000CBFB084B05481C70BDE8104008F0CEBB8E
:101AF00008F042FDE4E700BF7009FF1F1C09FF1F4B
:101B000084F3FF1FA83D002008B5202383F311882C
:101B10000F488368002B18DD08F0F6FC002383F3E0
:101B200011880C4B0C4802221A7008F0A5FB0B4BD5
:101B3000094801221A7008F0A9FB094809F002F8C7
:101B40003220BDE8084008F005BE08F015FDE3E7C7
:101B50007009FF1F1809FF1F1C09FF1F4CF5FF1F0D
:101B6000F03D010010B5202383F3118811488368EC
:101B7000002B1BDD08F0C8FC002484F3118812211F
:101B80000D480EF0E3F90D480EF0E8FC0C4B0D4843
:101B90000C221A7008F070FB0B4B0A481C7008F0FE
:101BA00075FB0A48BDE8104008F0CCBF08F0E4FC23
:101BB000E0E700BF7009FF1FF83D01004C0EFF1F5A
:101BC0001809FF1F1C09FF1F4CF0FF1FC03D01003B
:101BD00010B5202383F3118810488368002B19DD8A
:101BE00008F092FC002383F311880D4A0D4B0E4838
:101BF000012414701C7008F03FFB0C4B0A481C7049
:101C000008F044FB0A4808F09DFF3220BDE8104070
:101C100008F0A0BD08F0B0FCE2E700BF7009FF1FAC
:101C20001809FF1F980B00201C09FF1F4CF5FF1F10
:101C30000C3E010010B5202382B083F311881348B5
:101C40008368002B1EDD08F05FFC002383F31188FE
:101C50000F4801A908F0AEFE019C0E4844B908F0F7
:101C60000BFB0D4B0B481C7008F010FB02B010BDB5
:101C700008F002FB084B074801221A7008F006FB27
:101C800002B010BD08F078FCDDE700BF7009FF1F4F
:101C9000244000201C09FF1F44F9FF1F10B520231A
:101CA00082B083F3118813488368002B1EDD08F08F
:101CB0002BFC002383F311880F4801A908F07AFE5A
:101CC000019C0E4844B908F0D7FA0D4B0B481C7024
:101CD00008F0DCFA02B010BD08F0CEFA084B074855
:101CE00001221A7008F0D2FA02B010BD08F044FCCC
:101CF000DDE700BF7009FF1F544000201C09FF1FD3
:101D00001909FF1F00B5202383B083F311881548FC
:101D10008368002B23DD08F0F7FB002383F3118891
:101D2000114801A908F046FE019B10485BB908F074
:101D30004FF92A210E480EF009F90E480EF00EFC5C
:101D400003B05DF804FB08F02BF928210A480EF0D7
:101D5000FDF808480EF002FC03B05DF804FB08F043
:101D60000BFCD8E77009FF1FDC0D002090F7FF1F68
:101D7000503D01004C0EFF1F243D010010B52023F3
:101D800082B083F311880E488368002B14DD08F0BD
:101D9000BBFB002484F311880A4801A908F00AFE5D
:101DA000019B1BB12146084808F02AFE0749084854
:101DB00009F09EF902B010BD08F0DEFBE7E700BFB6
:101DC0007009FF1F90F9FF1F78F9FF1F00510100F4
:101DD00044F6FF1F00B5202383B083F311880D481C
:101DE0008368002B12DD08F08FFB002383F311883A
:101DF000094801A908F06EFF019909B10139019163
:101E0000054808F08DFF03B05DF804FB08F0B4FB53
:101E1000E9E700BF7009FF1F94FFFF1F10B52023E3
:101E200082B083F311880E488368002B14DD08F01C
:101E30006BFB002484F311880A4801A908F0BAFD5D
:101E4000019B1BB12146084808F0DAFD0749084804
:101E500009F04EF902B010BD08F08EFBE7E700BFB5
:101E60007009FF1F78F9FF1F90F9FF1F0051010053
:101E700044F6FF1F00B5202383B083F311880D487B
:101E80008368002B12DD08F03FFB002383F31188E9
:101E9000094801A908F01EFF019909B10139019112
:101EA000054808F03DFF03B05DF804FB08F064FB53
:101EB000E9E700BF7009FF1FACFFFF1F00B520233B
:101EC00083B083F311880D488368002B12DD08F07E
:101ED0001BFB002383F31188094801A908F0FAFECF
:101EE000019909B101390191054808F019FF03B0C2
:101EF0005DF804FB08F040FBE9E700BF7009FF1F35
:101F00007CEEFF1F10B5202382B083F311881E489A
:101F10008368002B35DD08F0F7FA002484F311887C
:101F20001A4801A908F046FD019B63B9184A1949EE
:101F30001948137009F0DCF840F6FB51164809F017
:101F400003F902B010BD2146144808F059FD21469E
:101F5000134808F055FD0E4B124801221A7008F084
:101F60008BF9114B0F481C7008F090F90F490A4883
:101F700009F0BEF840F28A21074809F0E5F802B0FE
:101F800010BD08F0F9FAC6E77009FF1FC40D002064
:101F9000703D0020203E010090F6FF1F940D0020B0
:101FA000AC0D00201C09FF1F84F3FF1F143E01002D
:101FB00010B5202382B083F3118811488368002B69
:101FC0001BDD08F0A1FA002484F311880D48214696
:101FD00008F016FD21460C4808F012FD01A90B4837
:101FE00008F078FE0A4808F047F90A4B019A0848B9
:101FF0001A6008F04BF902B010BD08F0BDFAE0E736
:102000007009FF1F040D0020B82EFF1F603F002045
:10201000E008FF1F2C3D002010B5202382B083F381
:10202000118811488368002B1BDD08F06DFA00242D
:1020300084F311880D48214608F0E2FC21460C4843
:1020400008F0DEFC01A90B4808F044FE0A4808F03D
:1020500013F90A4B019A08481A6008F017F902B000
:1020600010BD08F089FAE0E77009FF1FEC0C0020B2
:10207000B82EFF1F783F0020E008FF1F2C3D0020F6
:1020800010B5202383F3118811488368002B1CDDD1
:1020900008F03AFA002484F311880E48214608F02B
:1020A000AFFC21460C4808F0ABFC21460B4808F079
:1020B0005DFF0B4808F0E0F80A4A0B4B126808482D
:1020C0001A60BDE8104008F0E1B808F055FADFE703
:1020D0007009FF1FEC0C0020040D00206830FF1F6A
:1020E000E008FF1F6C09FF1F2C3D002000B52023D6
:1020F00083B083F311881C488368002B15DD08F03A
:1021000003FA002383F311881848694608F052FC4B
:10211000009B1BB1164B1B7A022B09D015491648A0
:1021200008F0E6FF03B05DF804FB08F025FAE6E7E7
:1021300001A9124808F0CEFD019B10480133194651
:10214000019308F0EDFD0E4808F096F80D4B019A4A
:102150000B481A6008F09AF80B49074808F0C8FFC6
:1021600003B05DF804FB00BF7009FF1FEC0C0020FA
:10217000403F0020903B0100300F0020603F0020D6
:10218000E008FF1F2C3D00200051010000B5202376
:1021900083B083F311881C488368002B15DD08F099
:1021A000B3F9002383F311881848694608F002FC4C
:1021B000009B1BB1164B1B7A022B09D01549164800
:1021C00008F096FF03B05DF804FB08F0D5F9E6E7E8
:1021D00001A9124808F07EFD019B10480133194601
:1021E000019308F09DFD0E4808F046F80D4B019A4A
:1021F0000B481A6008F04AF80B49074808F078FFC6
:1022000003B05DF804FB00BF7009FF1F040D002040
:10221000403F0020903B0100300F0020783F00201D
:10222000E008FF1F2C3D002000510100F0B52023E5
:1022300089B083F3118826488368002B1ADD08F0E3
:1022400063F9002383F31188224802A908F0B2FB46
:10225000029B4BB1204C237A022B0ED01F49204801
:1022600008F046FF09B0F0BD1E491D4808F040FFC8
:1022700009B0F0BD08F080F9E1E703A91A481B4E48
:102280001B4D08F027FD039904A80A220EF092FACC
:10229000049A1849184807F04BFA1849104808F0F2
:1022A00027FF04F11807207A154B143432462946CB
:1022B0008DE8900006F0E0FE12493068124B2A6863
:1022C000086004A81A600EF0EFF909B0F0BD00BF75
:1022D0007009FF1F040D0020403F0020283E010030
:1022E000300F0020903B0100783F0020D808FF1FEE
:1022F0006C09FF1F343E0100443E0100603E0100B6
:102300002C09FF1F68F3FF1F2C0F0020F0B52023BE
:1023100089B083F3118826488368002B1ADD08F002
:10232000F3F8002383F31188224802A908F042FB46
:10233000029B4BB1204C237A022B0ED01F49204820
:1023400008F0D6FE09B0F0BD1E491D4808F0D0FEC9
:1023500009B0F0BD08F010F9E1E703A91A481B4ED7
:102360001B4D08F0B7FC039904A80A220EF022FACC
:10237000049A1849184807F0DBF91849104808F082
:10238000B7FE04F11807207A154B1434324629465B
:102390008DE8900006F070FE12493068124B2A68F2
:1023A000086004A81A600EF07FF909B0F0BD00BF04
:1023B0007009FF1FEC0C0020403F0020283E010068
:1023C000300F0020903B0100603F0020D808FF1F25
:1023D0006C09FF1F683E0100443E0100603E0100A1
:1023E0002C09FF1F68F3FF1F2C0F002000B52023CE
:1023F00083B083F311881C488368002B30DD08F01C
:1024000083F8002383F311881848694608F0D2FA4C
:10241000009B1BB1164B1B7A022B06D015491648A0
:1024200008F066FE03B05DF804FB01A9134808F04C
:1024300051FC019909B101390191104808F070FC73
:102440000F4807F019FF0F4B019A0D481A6007F06B
:102450001DFF0D49084808F04BFE03B05DF804FB72
:1024600008F08AF8CBE700BF7009FF1FEC0C0020D2
:10247000403F0020903B0100300F0020603F0020D3
:10248000E008FF1F2C3D00200051010000B5202373
:1024900083B083F311881C488368002B30DD08F07B
:1024A00033F8002383F311881848694608F082FA4C
:1024B000009B1BB1164B1B7A022B06D01549164800
:1024C00008F016FE03B05DF804FB01A9134808F0FC
:1024D00001FC019909B101390191104808F020FC73
:1024E0000F4807F0C9FE0F4B019A0D481A6007F01C
:1024F000CDFE0D49084808F0FBFD03B05DF804FB74
:1025000008F03AF8CBE700BF7009FF1F040D002068
:10251000403F0020903B0100300F0020783F00201A
:10252000E008FF1F2C3D00200051010030B52023A2
:1025300083B083F3118821488368002B3BDD07F0CB
:10254000E3FF002484F311881D4801A908F032FA42
:10255000019D95B91B4807F08FFE1B4B19481D7054
:1025600007F094FE19491A4808F0C2FD40F6FB51E5
:10257000174808F0E9FD03B030BD2146154808F0C2
:102580003FFA2146144808F03BFA0E4807F074FE63
:102590000D4B0C4801241C7007F078FE0F4B1049BE
:1025A0000B481C7008F0A4FD41F21701084808F020
:1025B000CBFD03B030BD07F0DFFFC0E77009FF1FA0
:1025C000AC0D00201C09FF1F880E0020203E0100DA
:1025D00090F6FF1F940D0020C40D00200C0F00206A
:1025E000783E010030B5202383B083F31188214861
:1025F0008368002B3BDD07F087FF002484F31188FC
:102600001D4801A908F0D6F9019D95B91B4807F0AE
:1026100033FE1B4B19481D7007F038FE19491A4844
:1026200008F066FD40F6FB51174808F08DFD03B039
:1026300030BD2146154808F0E3F92146144808F05A
:10264000DFF9144B144910481C7008F051FD4FF489
:1026500078410D4808F078FD084807F00DFE084B5A
:10266000064801221A7007F011FE03B030BD07F0D2
:1026700083FFC0E77009FF1F940D00201C09FF1F96
:10268000880E0020203E010090F6FF1FC40D0020A0
:10269000AC0D00200C0F00200C41010000B52023E0
:1026A00083B083F3118815488368002B23DD07F07E
:1026B0002BFF002383F31188114801A908F00AFBBE
:1026C000104B019A10481A6001A908F003FB0F4B48
:1026D000019A0F481A6001A908F0FCFA0D4B019A03
:1026E0000D481A6001A908F0F5FA0C4B019A1A601E
:1026F00003B05DF804FB07F03FFFD8E77009FF1F48
:1027000078F7FF1F1408FF1FE83A0020BCEEFF1FF8
:10271000500F00205408FF1F680F00204431FF1F96
:1027200010B5202382B083F311881C488368002BE6
:1027300030DD07F0E9FE002484F311880D211848EC
:102740000DF004FC17480DF009FF01A9164808F028
:1027500031F9019B5BB12146134808F051F9134848
:1027600007F08AFD124B11481C7007F08FFD0F48CF
:1027700007F082FD0F4B0D4801241C7007F086FD09
:102780000A4807F079FD0C4B08481C7007F07EFDE5
:1027900002B010BD07F0F0FECBE700BF7009FF1FCD
:1027A000843E01004C0EFF1F1C0D00201C09FF1F62
:1027B0004CF0FF1F8CEFFF1F0C3D002000B52023C5
:1027C00091B083F3118828488368002B49DD07F016
:1027D0009BFE002383F31188244802A908F07AFAAB
:1027E0002349244808F084FC03A9234808F072FA1E
:1027F00001A9224808F06EFA019904A80A220DF0F6
:10280000D9FF029908A80A220DF0D4FF03990CA859
:102810000A220DF0CFFF089A19491A4806F088FFDE
:102820000C9A1949174806F083FF049A174915486E
:1028300006F07EFF164807F01FFD164A1649174896
:1028400006F0A2FC124807F021FD0CA80DF02CFFA9
:1028500008A80DF029FF04A80DF026FF11B05DF8BF
:1028600004FB07F089FEB2E77009FF1F94FFFF1F0A
:10287000603E010030F5FF1FACFFFF1F7CEEFF1F25
:10288000943E0100C03C0100A03E0100BC3E01009E
:102890001808FF1F4C0F002058EEFF1F203B0020A0
:1028A0002DE9F04706466048604C07F0E5FC604BB8
:1028B0005D481D6807F0EAFC5E4A2368126893428F
:1028C00004D25D4A12689542C0F29D805B4A11783D
:1028D000002900F091800021594FDFF8A08111708C
:1028E0003A68D8F80010DFF89891521A012A40F29D
:1028F0008680D9F800203968DFF888A1514DDAF8D0
:102900000000B24288BF00261A010139A9502A44AA
:102910000A380133906023214B48236056600DF044
:1029200015FB4A480DF01AFE2368D7F800E0D9F8E5
:1029300000C0DAF8002046483968C8F800101B01CA
:10294000B44588BF002645F803E02B443968006889
:102950009A605E6007F0B6F93E4B3968186807F078
:10296000B1F907213C480DF0F1FA236837481A0104
:102970000023A9580A220DF001FE052137480DF069
:10298000E5FA2368314805EB0312002351680A2257
:102990000DF0F4FD042132480DF0D8FA23682B48DD
:1029A00005EB0312002391680A220DF0E7FD27488A
:1029B0000DF0D4FD1C4807F05FFC236829492A4A22
:1029C00019481B01EE18EB5875680D60136007F08D
:1029D0005DFC2368254840F6B7329342C5BF244AC0
:1029E000012301331370236007F046FC214B1F487D
:1029F00001221A7007F04AFC0120BDE8F087114D52
:102A0000DFF880A091E70BF08DFF12491A4B0246C8
:102A100008681A6007F09CFA0D4B186807F098FADE
:102A20000120BDE8F08700BFCC09FF1F5CF0FF1F4D
:102A3000E0F8FF1F5C0AFF1F6408FF1F4809FF1F23
:102A4000480F00207831FF1FD43E01004C0EFF1FBD
:102A5000580AFF1F1008FF1FF83E0100003F010049
:102A6000083F0100F42EFF1FA40E00201C09FF1FC9
:102A7000713D002090FFFF1F3C19FF1FD8FEFF1F74
:102A80006C09FF1FF43C002000B52023A1B083F3A4
:102A9000118845488368002B40F3828007F034FD9D
:102AA000002383F31188414802A908F013F903A910
:102AB0003F4808F00FF904A93E4808F00BF905A9B2
:102AC0003D4808F007F906A93C4808F003F907A9B2
:102AD0003B4808F0FFF8029908A80A220DF06AFEA8
:102AE00003990CA80A220DF065FE049910A80A2289
:102AF0000DF060FE059914A80A220DF05BFE069900
:102B000018A80A220DF056FE07991CA80A220DF0FB
:102B100051FE089A2B492C4806F00AFE0C9A2B49C4
:102B2000294806F005FE109A2949274806F000FEBC
:102B3000149A2849244806F0FBFD189A2649224891
:102B400006F0F6FD1C9A25491F4806F0F1FD2449C0
:102B5000244808F0CDFA244807F08EFB234A244B82
:102B6000244901920093244A244B254806F0C0FAD8
:102B70001D4807F08BFB1CA80DF096FD18A80DF062
:102B800093FD14A80DF090FD10A80DF08DFD0CA87C
:102B90000DF08AFD08A80DF087FD21B05DF804FB5B
:102BA00007F0EAFC7AE700BF7009FF1FA0F4FF1FDF
:102BB000B8F4FF1FD0F4FF1FE8F4FF1F00F5FF1F5C
:102BC00018F5FF1F103F0100303F01004C3F01008E
:102BD000703F0100903F0100B03F0100D03F010075
:102BE000D83C01001431FF1F800AFF1F680000203D
:102BF000D4F5FF1F902FFF1F243F0020F830FF1F48
:102C0000800F002030B52023A3B083F311886148E2
:102C10008368002B40F3BA8007F076FC002383F32F
:102C200011885D4803A908F055F804A95B4808F02D
:102C300051F805A95A4808F04DF806A9594808F076
:102C400049F807A9584808F045F808A9574808F076
:102C500041F803990A220AA80DF0ACFD04990A2252
:102C60000EA80DF0A7FD05990A2212A80DF0A2FDED
:102C700006990A2216A80DF09DFD07990A221AA8A6
:102C80000DF098FD08990A221EA80DF093FD09A9E0
:102C9000474807F08FFE099B002B62D109A94548E0
:102CA00007F088FE099B002B3CD109A9424807F098
:102CB00081FE099B23B1414A4149424806F038FD53
:102CC00041494248424D434C08F012FA0DF10B00C5
:102CD00006F066FB404A9DF80B00107202F11801E5
:102CE00014320191009221462A463C4B06F0C4F969
:102CF0003B493C4B2868226808601EA81A600DF00A
:102D0000D3FC1AA80DF0D0FC16A80DF0CDFC12A82B
:102D10000DF0CAFC0EA80DF0C7FC0AA80DF0C4FC0B
:102D200023B030BD304A2649264806F001FD0A9AF4
:102D30002E492F4806F0FCFC169A2E492C4806F026
:102D4000F7FC1A9A2C492A4806F0F2FC0E9A2B49F5
:102D5000274806F0EDFC129A2949254806F0E8FCC0
:102D6000AEE7284A1649174806F0E2FC0A9A1F49BE
:102D7000254806F0DDFC169A1E49234806F0D8FCCB
:102D80001A9A1D49204806F0D3FC99E707F0F4FB96
:102D900042E700BF7009FF1F943F0020AC3F0020B6
:102DA000C43F0020DC3F0020F43F00200C40002006
:102DB000102FFF1F282FFF1F402FFF1F74400100FF
:102DC000F43F010004400100D83C0100B40F002092
:102DD000D808FF1F6C09FF1F403F00202C09FF1F70
:102DE00068F3FF1F2C0F0020604001001C40010011
:102DF000443E0100404001004C400100683E01009B
:102E0000343E0100F03F01002840010070B5044647
:102E100008460D4610F054F823680246294620461D
:102E20005B68BDE87040184738B5044608460D4653
:102E300010F046F82368024629465B68204698470A
:102E4000054620460DF08AFB284438BD10B50548DC
:102E500007F012FA044B03481C7807F017FA2046D3
:102E600010BD00BF1C09FF1F4CF0FF1F10B5054827
:102E700007F002FA044B03481C7807F007FA2046D3
:102E800010BD00BF1C09FF1F84F3FF1F10B50548CC
:102E900007F0F2F9044B03481C7807F0F7F92046D5
:102EA00010BD00BF1C09FF1F880E002010B5154C77
:102EB000237813B1012B15D010BDFFF7E7FF70B1D8
:102EC000202111480DF042F810480DF047FB012376
:102ED00023700F490F48BDE8104005F0AFBA2378C2
:102EE000012BE9D121210C480DF030F807480DF0F5
:102EF00035FB0023237009490648BDE8104005F062
:102F00009DBA00BF280F0020A44001004C0EFF1FF7
:102F1000AD690000303D002080400100AD37000069
:102F200010B5054807F0A8F9044B03481C7807F0D2
:102F3000ADF9204610BD00BF1C09FF1F8CEFFF1F1D
:102F400010B5054807F098F9044B03481C7807F0C2
:102F50009DF9204610BD00BF1C09FF1FC83C002082
:102F600010B5054807F088F9044B03481C7807F0B2
:102F70008DF9204610BD00BF1C09FF1F44F9FF1F3B
:102F800010B5054807F078F9044B03481C7807F0A2
:102F90007DF9204610BD00BF1C09FF1F1909FF1F46
:102FA00010B5054807F068F9044B03481C7807F092
:102FB0006DF9204610BD00BF1C09FF1FA83D002071
:102FC00010B5054807F058F9044B03481C7807F082
:102FD0005DF9204610BD00BF1C09FF1F6C3B00209F
:102FE00038B5094C0546204607F046F9074B084816
:102FF0001D7014210CF0AAFF06480DF0AFFA204610
:10300000BDE8384007F042B91C09FF1FF02EFF1F32
:10301000C84001004C0EFF1F10B5054807F02CF901
:10302000044B03481C7807F031F9204610BD00BF5F
:103030001C09FF1F4CF5FF1F10B5054807F01CF9D0
:10304000044B03481C7807F021F9204610BD00BF4F
:103050001C09FF1FF02EFF1F10B5054807F00CF9E3
:10306000044B03481C7807F011F9204610BD00BF3F
:103070001C09FF1F0C3D002010B5054807F0FCF8A7
:10308000044B03481C7807F001F9204610BD00BF2F
:103090001C09FF1FF9ECFF1F10B5054807F0ECF8FD
:1030A000044B03481C7807F0F1F8204610BD00BF20
:1030B0001C09FF1F3C3C002070B51F4E012501205C
:1030C00007F048FB09200BF019FC002814BF01246D
:1030D00000240DD0A54209D0032118480CF036FF7A
:1030E00017480DF03BFA32200BF040FC2546E6E78E
:1030F000032112480CF02AFF11480DF02FFAA542C7
:10310000F4D002210F480CF021FF0D480DF026FAF3
:10311000FFF7B2FF18B932200BF028FCE3E7FFF706
:10312000BBFF0028F7D1084807F0A6F8012306489E
:10313000337007F0ABF8EEE774F7FF1FE0400100D3
:103140004C0EFF1F783D01001C09FF1F38B52220DF
:103150000AF08CFF1B4B196802461B4818290260B5
:1031600029D001311948196050F8215040F8212028
:103170001749184C0B68184813445A1B84FB023437
:10318000D317C3EBE4040A6007F076F8134B124838
:103190001C6007F07BF8124B0F481B68A342D4BF9A
:1031A000E41A002407F068F80E4B0B481C6007F087
:1031B0006DF8204638BD054900200D6818600A608A
:1031C000D6E700BF840E002064000020A80E002077
:1031D000942FFF1F1F85EB51CC09FF1F043B0020DC
:1031E0001408FF1FE0F8FF1F38B523200AF03EFF48
:1031F0001B4B196802461B480429026029D0013183
:103200001948196050F8215040F821201749184CEE
:103210000B68184813445A1B84FB0234D317C3EBC2
:1032200064040A6007F028F8134B12481C6007F08A
:103230002DF8124B0F481B68A342D4BFE41A002498
:1032400007F01AF80E4B0B481C6007F01FF82046D9
:1032500038BD054900200D6818600A60D6E700BF38
:10326000203F002048F5FF1FF83C0020982FFF1F4B
:1032700067666666DC09FF1F5C3F0020BCEEFF1F2F
:10328000800E002038B56FF4AF73C21840F2562399
:103290009A4210D99738C6282FD92A4C2A4D23682C
:1032A0002868181A40F24B43984212DDB0F5FA6FC5
:1032B00033DB002038BD254B224C234D01221A6000
:1032C0000BF030FB23682860181A40F24B439842F9
:1032D000ECDC0BF027FB2368C01AB0F5617F17D236
:1032E00009211B480CF032FE04211A480DF086F922
:1032F00018480DF033F9042038BD144B124D114C11
:1033000001221A600BF00EFB034623602868C8E711
:103310002868181AB0F5FA6FCBDA0BF003FB2368B4
:10332000C01AB0F5FA6FC4D2092109480CF00EFE9C
:10333000052108480DF062F906480DF00FF9052047
:1033400038BD00BFCC18FF1F6C3D0020F03C0020B2
:10335000E44001004C0EFF1F2DE9F047012184B02D
:103360000D200BF0D9FADFF8BC80264FDFF8B890BB
:10337000254E264D264C08E002FB0EF24B1C92FB1C
:10338000F3F32448236006F081FF012007F0E2F9FF
:103390004FF0000E01A903AB02AA1F48CDF804E0CC
:1033A000CDF808E006F09CFB1C4806F065FF029A89
:1033B000019B1A48C8F800203B6006F067FF02989E
:1033C000FFF760FF824698B9124806F055FF336850
:1033D00029680298C91A6429C3EB000E4FF06502F0
:1033E000CADCC31A642202FB03F292FBF1F3C8E7C2
:1033F0000B4806F041FF0A48C9F800A006F046FF56
:10340000E2E700BF043B00204431FF1F5408FF1FC8
:103410004830FF1F2C08FF1FD0F3FF1F380AFF1F83
:10342000BC09FF1FE0F8FF1F90EFFF1F10B5044617
:10343000002100780BF0ACF8207A00210BF0A8F8FE
:1034400020790021BDE810400BF0A2B870B5847B54
:1034500082B03CB3846941698C4202D300218173FC
:1034600081611549C46909680191019E0169341B94
:103470008C4217D91D4690F82030C661114604468B
:1034800093B1002380F8203000790BF081F82946B1
:1034900020780BF07DF80699207A0BF079F8A36973
:1034A0000133A36102B070BD012380F82030FFF723
:1034B000BDFF02B070BD00BFA443002030B504467C
:1034C00083B0394806F0D8FE257B374806F0DEFE8B
:1034D000012D43D026D3022D22D1637B022B15D0A0
:1034E0002046FFF7A3FF237B63734FF48051207ABC
:1034F0000BF04EF84FF4FA7120780BF049F80821E0
:103500002A480CF023FD2A480DF028F84FF4805388
:103510006169009320464FF4FA730022FFF796FF8B
:1035200003B030BD637B002BFAD02046FFF77EFF4F
:10353000237B637320784FF480510BF029F8207AB5
:103540004FF42F710BF024F808211A480CF0FEFC00
:10355000174803B0BDE830400DF000B8637B012B85
:1035600015D02046FFF762FF237B63734FF4805131
:1035700020790BF00DF840F2EE21207A0BF008F8DC
:1035800009210D480CF0E2FC09480CF0E7FF40F27D
:10359000EE2361690093204600234FF47A72FFF70F
:1035A00055FF03B030BD00BF1C09FF1F08410100DB
:1035B0004C0EFF1FF0400100FC40010038B50B78B5
:1035C000044633B1174A437D002111701BBB002311
:1035D0002362154806F050FE257D134806F056FE7E
:1035E00005B938BD0BF09EF9A369E269C31A93428D
:1035F000236A626A88BFA061013393422362F0D9D3
:10360000A37D5BB9072109480CF0A0FC0848BDE880
:1036100038400CF0A3BFFDF7F3FED8E72046FDF7D6
:10362000C3F9EFE748000020480AFF1F14410100DA
:103630004C0EFF1FF0B589B039493A4E68460DF07F
:1036400073F8394806F018FE384B374800251D73CB
:1036500006F01CFE3746012007F07CF83348FFF7E0
:103660002DFF33492F48FFF7A9FF324806F004FE2B
:10367000347D304806F00AFEAC42ECD0002C39D044
:1036800006212D480CF062FC2C480CF067FFBB684B
:103690007D682B4904A85D1B0DF046F804A9684617
:1036A0000DF0D6F804A80CF0FFFF0A22294604A862
:1036B0000DF080F804A968460DF014F904A80CF088
:1036C000F3FF009D28460FF0FBFB014628460CF057
:1036D0003DFC1A480CF042FF009D28460FF0F0FB1D
:1036E0002946024617480CF0FFFE164825460CF006
:1036F00035FFB0E7032114480CF028FC0F480CF00C
:103700002DFF7B68BD680D485D1B294623460A22B4
:103710000CF034FF09480CF021FF0C4904A8BBE76A
:1037200000510100A80C00201C09FF1FCC3C002008
:1037300048000020480AFF1F1C4101004C0EFF1FDB
:10374000244101002430FF1F3441010038410100B1
:1037500010B5064C204606F08FFD054A136820463A
:103760000133BDE81040136006F090BD9808FF1FBC
:1037700038F6FF1F10B50446044806F07DFD647856
:10378000024806F083FD204610BD00BF1C09FF1F44
:1037900008B5012110200BF0ABF80A2006F0DAFF83
:1037A00000211020BDE808400BF0A2B870B50C2134
:1037B0000F4C1048104D0CF0C9FB10480CF0CEFE19
:1037C000204606F059FD012620466E7006F05EFD8B
:1037D0002846FFF7DDFF2846FFF7BAFF204606F030
:1037E0004BFD074B20461E70BDE8704006F04EBDF5
:1037F0001C09FF1F44410100902EFF1F4C0EFF1FAC
:103800006C3B002010B5202384B083F3118812484C
:103810008368002B1DDD06F077FE002484F31188F9
:10382000FFF7C4FF0D4801940294ADF80C4006F078
:1038300023FD0B4B09481C6806F028FD01A90A224C
:1038400020460FF095FF0146064807F051FC04B0F2
:1038500010BD06F091FEDEE77009FF1F9808FF1FFC
:1038600038F6FF1FA0F3FF1F704700BF70B51E485A
:103870001E4E1F4D06F000FD1E4B1F4A1A481268CF
:103880001C6806F003FD21461C4806F00FF931685C
:103890002B78884238BF084640F6FA72904228BF1B
:1038A0001046044633B989B20022154807F044F89F
:1038B000204670BDFFF7E0FB88B9124D2B689C4293
:1038C00005D00246A1B20E4807F036F82C60002C55
:1038D000EED00BF027F80C4B1860204670BD2B780B
:1038E000002BE5D13168DEE7380AFF1F6C09FF1FA6
:1038F0002808FF1FE0F8FF1F043B0020D0F3FF1F44
:10390000743D002050F0FF1FA80C0020F0B5A74C1C
:10391000A74EA84D9DB027460CE0012006F01AFFE7
:103920000CF0AEFA2368C0B25A1C0A28E854226090
:1039300000F037810CF0E0FA0028EED13378002B4C
:1039400000F02D8105229B499B480FF027FB0028A2
:1039500000F084810522974998480FF01FFB044628
:10396000002800F02C820A22924995480FF016FB9D
:1039700010B9944B01221A700A228E4992480FF016
:103980000DFB08B98F4B18700A228A498F480FF037
:1039900005FB10B98E4B01221A700A2285498D4809
:1039A0000FF0FCFA08B98A4B18700B2281498A483B
:1039B0000FF0F4FA002800F0F4810B227D498748CB
:1039C0000FF0ECFA0346002800F0DB810A22794967
:1039D00083480FF0E3FA002800F0DA810B227549E2
:1039E00080480FF0DBFA002800F049820B22714971
:1039F0007D480FF0D3FA002800F05B820B226D495E
:103A00007A480FF0CBFA002800F06D820B2269494A
:103A100077480FF0C3FA0446002800F09981052288
:103A2000644974480FF0BAFA10B9734B01221A7046
:103A30000522604971480FF0B1FA08B96E4B187051
:103A400009225C496E480FF0A9FA08B96D4B18605D
:103A5000092258496C480FF0A1FA20B96B496C4A09
:103A600001230B701370092252496A480FF096FA2D
:103A700008B9664B187009224E4967480FF08EFA54
:103A800008B9664B187009224A4965480FF086FA52
:103A900010B9624B01221A700522464961480FF0A5
:103AA0007DFAA0B9604840F6B73302E0002900F083
:103AB000FC821A0119468258013B002AF6D00023E5
:103AC0000A225A480CF05AFD58480CF047FD0B22C8
:103AD000384957480FF062FA002800F0A782032205
:103AE000344954480FF05AFA0446002800F0C280C6
:103AF0000622304950480FF051FA0446002800F0E1
:103B0000E48004222B494D480FF048FA002800F0C9
:103B10001C81032227494A480FF040FA002800F090
:103B20006B820922234947480FF038FA04460028DF
:103B300000F0328208221F4943480FF02FFA044652
:103B4000002800F0418207221A4940480FF026FA67
:103B50000446002800F07B81062216493C480FF0FD
:103B60001DFA002800F034810322124939480FF071
:103B700015FA002800F0518104220E4936480FF052
:103B80000DFA0446002800F054810A4A002313600D
:103B900053609360D36013615361137633701DB02B
:103BA000F0BD0122002332703B60C3E6403C0020A0
:103BB00054F8FF1F600E0020644101006C410100B9
:103BC0007441010044F9FF1F844101009441010048
:103BD0001909FF1FA4410100B4410100D8410100AF
:103BE000FC4101000C420100404201007042010012
:103BF000A4420100D44201002808FF1FDC4201005A
:103C0000E4420100480F0020F0420100703D002016
:103C10004809FF1FFC420100084301000C0F00206F
:103C200014430100204301007831FF1F4C0EFF1F99
:103C300028430100684301008C430100AC430100AC
:103C4000B4430100BC430100F843010024440100D7
:103C50005044010094440100B4440100AE4BAF480D
:103C600001241C7006F008FBAD4BAC481C7006F03C
:103C70000DFB6FE60B21AB480CF068F9AA480CF07D
:103C80006DFC06AA05A904A805F082F9052800F034
:103C90000E8223460499A4480A220CF06FFCA24825
:103CA0000CF05CFC234605999F480A220CF066FC48
:103CB0009D480CF053FC23460A2206999A480CF0C2
:103CC0005DFC99480CF04AFC12E7112197480CF072
:103CD0003DF995480CF042FC06AB009304AA05ABF5
:103CE00003A902A805F00AF9052800F0E881234697
:103CF00002998D480A220CF041FC8B480CF02EFCF6
:103D00002346039988480A220CF038FC86480CF0B8
:103D100025FC2346049984480A220CF02FFC824893
:103D20000CF01CFC234605997F480A220CF026FC67
:103D30007D480CF013FC23460A2206997A480CF0C1
:103D40001DFC79480CF00AFCDBE6FCF7A9FDE0E677
:103D5000774B78481C701E210CF0F8F872480CF074
:103D6000FDFB754B754976481C700CF069FD6B487E
:103D700006F082FA734B694801221A7006F086FA3F
:103D80004DE6714A7148137010210CF0DFF81DE602
:103D90006F4B7048012240F6B8311A7004F088FC6D
:103DA0001CE65E4806F068FA674B5C4801221A7010
:103DB00006F06CFA112168480CF0C8F8FDE5574888
:103DC00006F05AFA564B55481C7006F05FFACAE5E1
:103DD000122162480CF0BAF853480CF0BFFB06A958
:103DE0000A225F4805F03AFB06AC1AAD21684E483E
:103DF00000230A220CF0C2FB03215A480CF0A6F85B
:103E00006168494800230A220CF0B8FB0834464890
:103E10000CF0A4FBA542E9D1A6E6162152480CF00D
:103E200095F841480CF09AFB504B186806F02AF8B8
:103E3000A2E60E214E480CF089F83B480CF08EFBB0
:103E40004A4B186805F0BEFF4A4B1C609DE60C21EA
:103E500049480CF07BF834480CF080FB214606A85A
:103E60000CF062FC06A84FF480610CF025FC06A95A
:103E7000424804F025FD06A80CF016FC6CE62C4B1D
:103E80003F48032420211C700CF060F826480CF0F9
:103E900065FB294B3B492A481C700CF0D1FC1F489C
:103EA00006F0EAF9274B1D4801221A7006F0EEF9D8
:103EB0009CE51F4B344802241F211C700CF046F86F
:103EC00019480CF04BFB1C4B30491D481C700CF082
:103ED000B7FC124806F0D0F91A4B104801221A70AC
:103EE00006F0D4F98AE5124B2948012420211C70E0
:103EF0000CF02CF80C480CF031FB0F4B2549104806
:103F00001C700CF09DFC054806F0B6F90D4B0348FB
:103F10001C7006F0BBF979E54809FF1F1C09FF1F5B
:103F200084F3FF1F704301004C0EFF1F98430100F4
:103F3000283F0020B44201005CEEFF1F9C2FFF1FB2
:103F40002C3F00204CF5FF1F4CF0FF1FE841010003
:103F50008CEFFF1F7831FF1FC44101005C4401005A
:103F600070440100904401009C440100D408FF1FEC
:103F7000BC440100480F0020C84301003044010048
:103F80001C420100AC2FFF1F50420100BC2FFF1F3D
:103F900080420100CC2FFF1F0C214D480BF0D6FFB3
:103FA0004C480CF0DBFA214606A80CF0BDFB06A835
:103FB0004FF480610CF080FB06A9474804F080FCB8
:103FC00006A80CF071FBB5E50C2141480BF0BEFFD3
:103FD00040480CF0C3FA214606A80CF0A5FB06A841
:103FE0004FF480610CF068FB06A93C4804F068FCC3
:103FF00006A80CF059FBA6E506A805F0D1F9384B48
:104000000193043B044600939DF81800354B364A53
:10401000364905F031F8052C7FF483AD0D21344885
:104020000BF094FF2B480CF099FA7AE512213148F5
:10403000314C324D0BF08AFF26480CF08FFA0721E5
:104040002F480BF083FF2168224800230A220CF03E
:1040500095FA05212B480BF079FF61681D48002374
:104060000A220CF08BFA042127480BF06FFFA1689D
:10407000184800230A220CF081FA042123480BF08F
:1040800065FFE168134800230A220CF077FA103428
:1040900010480CF063FAA542D1D112211C480BF054
:1040A00055FF0C480CF05AFA19E5114607E50D21A9
:1040B0000F480BF04BFF07480CF050FA18E50D21A4
:1040C0000B480BF043FF03480CF048FA19E500BF1A
:1040D000C84301004C0EFF1FD843010004440100F7
:1040E000583F00202C09FF1FD808FF1F6C09FF1F35
:1040F0007C430100384301007831FF1FF8ECFF1FBB
:10410000F83E0100003F0100083F01004C43010060
:104110005443010008B5064C012006F01BFBFFF7D5
:10412000F5FB2378002BF7D0FCF7C8FEF4E700BFBF
:1041300044F9FF1F38B5094C094D204606F09CF89C
:104140002868012105F0A6FD2868012105F092FDEF
:104150002046BDE8384006F099B800BF7C09FF1F33
:10416000D408FF1F00B5202383B083F311880A48C9
:104170008368002B0DDD06F0C7F9002383F3118857
:10418000064801A906F016FCFFF7D4FF03B05DF85E
:1041900004FB06F0F1F9EEE77009FF1F4C0D00205B
:1041A00038B5174C1748184D08210BF0CFFE2046A4
:1041B0000CF0D4F9182115480BF0C8FE20460CF07D
:1041C000CDF9284606F058F8114B284600251D70F9
:1041D00006F05CF81C200AF085F90120FEF700FFCC
:1041E00012210C480BF0B2FE20460CF0B7F929461C
:1041F000094804F0DDF8094B03221A7038BD00BFEE
:104200004C0EFF1FCC4401001C09FF1FD8440100C5
:10421000880E0020F4440100ACEFFF1F283D002071
:10422000B34AB44938B5104607F026F8B24AB34944
:10423000B34DB44C104607F01FF8B34AB3491046CB
:1042400007F01AF8B24AB349104607F015F8B24A17
:10425000B249104607F010F8B14AB249104607F0CB
:104260000BF8B14AB149104607F006F8B04AB14917
:10427000104607F001F8B04AB049104606F0FCFFBE
:10428000AF4AB049104606F0F7FFAF4AAF491046B3
:1042900006F0F2FFAE4AAF49104606F0EDFFAE4A17
:1042A000AE49104606F0E8FFAD4AAE49104606F0AA
:1042B000E3FFAD4AAD49104606F0DEFFAC4AAD491A
:1042C000104606F0D9FFAC4AAC49104606F0D4FFC0
:1042D000AB4AAC49104606F0CFFFAB4AAB4910469B
:1042E00006F0CAFFAA4AAB49104606F0C5FFAA4A23
:1042F000AA49104606F0C0FFA94AAA49104606F08E
:10430000BBFFA94AA949104606F0B6FFA84AA94929
:10431000104606F0B1FFA84AA849104606F0ACFFC7
:10432000A74AA849104606F0A7FFA74AA749104682
:1043300006F0A2FFA64AA749104606F09DFFA64A2E
:10434000A649104606F098FFA54AA649104606F071
:1043500093FFA54AA549104606F08EFFA44AA54939
:10436000104606F089FFA44AA449104606F084FFCF
:10437000A34AA449104606F07FFFA34AA34910466A
:1043800006F07AFFA24AA349104606F075FFA24A3A
:10439000A249104606F070FFA14AA249104606F055
:1043A0006BFFA14AA149104606F066FFA04AA14949
:1043B000104606F061FFA04AA049104606F05CFFD7
:1043C0009F4AA049104606F057FF9F4A9F49104652
:1043D00006F052FF9E4A9F49104606F04DFF9E4A46
:1043E0009E49104606F048FF9D4A9E49104606F039
:1043F00043FF9D4A9D49104606F03EFF9C4A9D4959
:10440000104606F039FF9C4A9C49104606F034FFDE
:104410009B4A9C49104606F02FFF9B4A9B49104639
:1044200006F02AFF9A4A9B49104606F025FF9A4A51
:104430009A49104606F020FF994A9A49104606F01C
:104440001BFF994A9949104606F016FF2A469849DB
:10445000984806F011FF22469749984806F00CFF4D
:10446000974A9849984806F007FF984A984999480A
:1044700006F002FF984A9949994806F0FDFE2A463F
:104480002846984906F0F8FE22462046964906F04E
:10449000F3FE964A9649104606F0EEFE954A964976
:1044A000104606F0E9FE954A9549104606F0E4FEEE
:1044B000944A9549104606F0DFFE944A9449104606
:1044C00006F0DAFE934A9449104606F0D5FE934A68
:1044D0009349104606F0D0FE924A9349104606F0E2
:1044E000CBFE924A9249104606F0C6FE914A23E15D
:1044F00060FFFF1FAD13000078FFFF1F351700009E
:104500003C3B0020543B0020F42FFF1F59130000B8
:104510000C30FF1FE50F00001C0D0020D914000017
:10452000340D0020391500004C0D002065410000BD
:10453000D8EEFF1FED670000F0EEFF1F5D68000082
:10454000640D0020CD6800007C0D00203D69000056
:104550000C3C0020053800004019FF1F21270000F7
:104560005819FF1F651B000088F3FF1F4D6A0000EC
:10457000783D0020B11A000020F6FF1FE916000068
:10458000782FFF1FC512000024400020351C0000BA
:10459000544000209D1C00003C4000200D110000F4
:1045A0003CF8FF1FE10F0000482EFF1F79120000AA
:1045B0007019FF1FE90F00002CF7FF1F19100000F2
:1045C0005CF7FF1FC111000014F7FF1FD11B000093
:1045D00094EEFF1F091B000064EEFF1FD1100000C6
:1045E00044F7FF1F3D120000940D0020E525000058
:1045F000AC0D00202D250000C40D0020051F00007B
:10460000DC0D0020051D0000F43B00209515000086
:1046100030000020216A0000100F002091160000D9
:10462000C0F9FF1F3D160000DCF9FF1FC511000097
:10463000F4F9FF1F011200006CF3FF1FE1090000F5
:10464000602EFF1FBD110000FCF8FF1FCD10000001
:1046500014F9FF1FC91000002CF9FF1FC51000003E
:10466000103D0020C110000048F9FF1FBD100000E0
:1046700060F9FF1F8510000078F9FF1F1D1E000064
:1046800090F9FF1F7D1D0000FC30FF1FE9150000A1
:10469000D4EFFF1F9D2600002C31FF1F5114000096
:1046A000ECEFFF1F9514000050F5FF1F49100000AC
:1046B000B10F0000800B0020052C0000903D002071
:1046C000F0F5FF1F41190000102FFF1F08F6FF1F14
:1046D00071180000282FFF1F60F6FF1FF919000056
:1046E000402FFF1F45110000892A00006830FF1F7E
:1046F00031080000EC0C0020B11F0000040D002068
:1047000019200000B82EFF1F8120000008EFFF1FB6
:10471000ED230000B8F3FF1FED20000028F3FF1F7A
:104720008D24000058F4FF1F8D21000070F4FF1F3E
:104730000D23000088F4FF1F1949104606F09CFD68
:10474000184A1949104606F097FD184A18491046AC
:1047500006F092FD174A1849104606F08DFD174ADB
:104760001749104606F088FD164A1749104606F00C
:1047700083FD164A1649104606F07EFD154A164975
:10478000104606F079FD154A1549104606F074FDED
:10479000144A15491046BDE8384006F06DBD00BF0B
:1047A0000D13000034F0FF1F2D220000782EFF1F94
:1047B000D51D00008819FF1F99170000B01DFF1FAD
:1047C000BD270000C81DFF1F81110000DC2FFF1F47
:1047D000751E0000A02EFF1FE1170000F82EFF1F1E
:1047E000BD1E0000F81DFF1F2918000010B5094864
:1047F00005F042FD084B1C7824B9064805F046FD3B
:10480000204610BD002203481A7005F03FFD2046E7
:1048100010BD00BF1C09FF1F90FFFF1F2DE9F04FC7
:10482000B44C2368DB078FB040F1EF80B248B34D42
:10483000B34C05F021FDB349B34AB44BAE48D5F8AB
:104840000090D1F8008015681E6805F01FFDB04883
:1048500005F012FDAF4BAE481F6805F017FD237839
:10486000013B0E2B00F2CE80DFE813F0E1009C014B
:1048700074025C03A3029403DF0385050A05600547
:10488000F8036D04A405CC00F005DAF80010A24886
:1048900006F046FA21460AA80BF046FF9F49069407
:1048A0000AA80794ADF820400CF020F89C4805F0C9
:1048B000E3FC9C4B9A481D6805F0E8FC0A2206A917
:1048C00028460EF055FF01460AA80CF00FF80A9989
:1048D000954806F00DFC0121944806F091F89449A2
:1048E000944806F0BDF89449944806F0B9F8944904
:1048F000944806F0B5F89449944806F0B1F821467A
:104900008C4806F07DF821468C4806F079F821465F
:104910008C4806F075F821468C4806F071F88C49F1
:104920008C480CF01FF8002800F0578701218148BF
:1049300006F066F88849894806F0DAFB0AA80BF009
:10494000B3FEFFF753FF002840F09686FEF738FBD2
:10495000002840F0C086FEF75FFB002852D0804858
:104960007C4D05F089FC7F4B7D4800241C7005F0D0
:104970008DFC7D4B6848196806F0D2F921466D48D8
:1049800006F03EF821466D4806F03AF821466D489B
:1049900006F036F821466D4806F032F8296873486B
:1049A00006F0A6FB28466A490BF0DCFF002800F061
:1049B000C88601215F4806F023F800210AA80BF001
:1049C000B3FE0023554907930AA80693ADF820309B
:1049D0000BF08CFF524805F04FFC524B50481C68BE
:1049E00005F054FC0A2206A920460EF0C1FE01463D
:1049F0000AA80BF07BFF0A994B4806F079FB0AA83E
:104A00000BF052FE0FB0BDE8F08F204609F02EFCEF
:104A100000283FF40BAF544B55491B68554AA1FB86
:104A20000313DB092046136009F026FCFEE6DFF8DD
:104A300070B1514806F012F99BF80030012B00F0DC
:104A4000D7864748DFF820A14A4E4C4D4C4F05F021
:104A500013FC4C4B424800221A70019205F016FCE0
:104A6000172149480BF072FA48480BF077FD4FF4D4
:104A7000967005F06FFE4FF6E071384806F0AAFB1D
:104A80004349364806F034FB082142480BF05EFAF1
:104A90003E480BF063FDDAF80030354920788BF89A
:104AA0000000A1FB0323019A3B492A60DB090A703D
:104AB00033601946354813460A220BF05FFD334830
:104AC0000BF04CFD40F2911402E0013C3FF4DDAEEE
:104AD000012005F03FFE2A683368134407EB0312F8
:104AE0002B605268002AF0D0D2B201212B4806F088
:104AF00003FCEAE76C000020CC09FF1FF42EFF1F27
:104B00001809FF1FA40E0020B0EEFF1F043B002079
:104B1000DC09FF1F5C3F002048FFFF1F8C450100A0
:104B20009808FF1F38F6FF1FA0F3FF1F340D002069
:104B3000A0450100D8EEFF1FAC450100F0EEFF1FBD
:104B4000B8450100640D0020C44501007C0D002023
:104B50009C2FFF1F2C3F002000510100D00C002093
:104B60001C09FF1F4CF5FF1F903F002088F3FF1F1B
:104B70001F85EB513CF6FF1F8C09FF1F003B0020F7
:104B80007831FF1F0C3D0020FC4701004C0EFF1F39
:104B90001448010020480100980B002054F0FF1F2A
:104BA00070F8FF1FDFF838B3B74806F057F89BF8E6
:104BB0000030022B00F02386B44805F05DFBB44BB7
:104BC000B24800261E7005F061FB2378B1488BF8CF
:104BD000003019210BF0BAF9AF480BF0BFFCAF4918
:104BE000AF4806F085FA4FF6FF71AD4806F0F2FACD
:104BF00031460AA806960796ADF820600BF094FDA2
:104C0000A8490AA80BF072FEA74805F035FBA74B90
:104C1000A5481C6805F03AFB0A22204606A90EF0BA
:104C2000A7FD01460AA80BF061FEA1490AA80BF0F6
:104C30005DFE9D4805F020FB9E4B9B481C6805F0DF
:104C400025FB0A2206A920460EF092FD01460AA87D
:104C50000BF04CFE0A99984806F04AFA31469748FC
:104C600006F0E6F83146964806F0E2F8954B96488D
:104C7000196806F03DFA0AA80BF016FDFFF7B6FD1D
:104C800000284ED0914B92491C68A5F548756523C4
:104C900003FB05F281FB0215642C4FEAE272C2EBC2
:104CA000252540F3478503FB08F3013493FBF4F417
:104CB000642C28BF64244B2D8CBF4FF4784140F204
:104CC00023717F4806F0E0F821467C4806F0B0F8F2
:104CD00029467B48002506F0ABF8294606A804952E
:104CE0000395ADF814500BF01FFD0A2203A92046CE
:104CF0000EF03EFD03A906A80BF0B2FD754906A80B
:104D00000BF0F4FD0699744806F0F2F9642C00F0FB
:104D10009C85FEF755F9002840F01F8506A80BF08A
:104D2000C3FCFEF789F9002840F0EB83FEF774F925
:104D300000283FF467AE554805F09EFA674B53488C
:104D400000221A7005F0A2FA5E4B5F48196806F05F
:104D5000CFF957E6624D634805F080FF2B78032BAF
:104D600020D0142160480BF0F1F84B480BF0F6FB13
:104D700023782B70C82005F0EDFCFEF7F1F8014612
:104D80005A4805F03DFEFEF7FBF80146584805F08D
:104D900037FE5849584806F0ABF94FF6FF715648B0
:104DA00006F018FA05F038F90146544805F0B8FF46
:104DB00028E6534805F052FF494B1A78052A08D0D7
:104DC000227850481A701D210BF0C0F832480BF0C1
:104DD000C5FBFFF70BFD00283FF414AE3B4B3C4CEA
:104DE0001A68A5F54875652303FB05F584FB0514D2
:104DF000642A4FEAE575C5EB242440F3A18303FB45
:104E000008F3551C93FBF5F54B2C40F28B834FF4C4
:104E100078413D4806F038F829463C4806F008F845
:104E20002146394806F004F8642C0FD10021384897
:104E300005F0E6FD0021374805F0E2FD0021364887
:104E400005F0DEFD0021354805F0DAFD00231946A6
:104E50000AA807930693ADF820300BF065FC0A22F0
:104E600006A928460EF084FC06A90AA80BF0F8FC57
:104E70000AA818490BF03AFD0A99294806F038F9B2
:104E80000AA80BF011FCBDE5B40AFF1F1C09FF1FA7
:104E90000C3D00202C4801004C0EFF1F005101006A
:104EA0004831FF1F8C4501009808FF1F5CF6FF1F6B
:104EB0000846010038F6FF1F94EFFF1FACF7FF1FF5
:104EC000B4EEFF1FFCECFF1F30000020903F0020DD
:104ED00037800B6D044601004C30FF1F4CF5FF1F5F
:104EE00070F8FF1FA00AFF1F244701002440002084
:104EF000544000203C470100D8F5FF1FE01DFF1F74
:104F0000900AFF1FE4450100582FFF1F5C23FF1F7D
:104F1000940D0020AC0D0020C40D0020783D002031
:104F2000500B0020954D964805F098FE2B78042BE9
:104F30003FF468AD1D219348934E0BF007F893485A
:104F40000BF00CFB23782B70C82005F003FC716973
:104F50008F4805F0E5FEB1698E4805F0E1FE0021BD
:104F60008D4805F04DFD00218C4805F049FD0121DB
:104F70008B4805F045FD8B4B8B48196806F026F8E9
:104F80008A4B8948196806F067F80021864805F0C1
:104F9000EDFF37E5864805F061FE784B1A78062A62
:104FA0001BD0227883481A70002105F041FF824906
:104FB000824806F09DF8824B1B7813B1814B1B7819
:104FC00023B9814805F0BEFD0723237013217F48D4
:104FD0000AF0BCFF6D480BF0C1FA7D4805F04CF9B2
:104FE0007C4B7B481C6805F051F97B4A631E302BD3
:104FF0008CBF116840F22371A4F133034FF6E070C7
:105000000A2B98BF0146A4F13F03242B1160724A7A
:1050100000F273824FF478411160664805F034FF66
:105020002146644805F004FFECE46C4805F016FEE8
:10503000524B1A78072A3FF4E5AC624A217812787D
:105040001970002A7FF4DEAC4FF47841644806F012
:10505000C1F86449624806F04BF8D3E4624805F0B1
:10506000FDFD464B1A780B2A5FD022785F481A70F4
:1050700018210AF06BFF45485D4D5E4C0BF06EFA4F
:10508000C82005F067FB00215B4805F0B9FC002152
:105090005A4805F0B5FC0021594805F0B1FC5949C2
:1050A000594806F025F85949594806F021F8594958
:1050B000594806F01DF85949594806F019F8594958
:1050C000594806F015F85949594806F011F8594958
:1050D000594806F00DF8594805F0CEF85848594A95
:1050E000594B5A49D0F80090D5F8008053481568BC
:1050F00027680E681C6805F0C9F84946544805F051
:105100000FFE4146534805F00BFE3946524805F064
:1051100007FE3146514805F003FE2946504805F088
:10512000FFFD21464F4805F0FBFD4F4B4F4A1B68E2
:105130000A934F480A9913680068CB1A83427FF696
:1051400061AC11605EE44B4805F088FD0B4B1A78AA
:105150000C2A3FF457AC227847481A7018210AF0FD
:10516000F5FE0A480BF0FAF91349444805F0C0FF70
:105170004FF6FF71414806F02DF843E470F8FF1F29
:105180006808FF1F44470100403F00204C0EFF1FEE
:10519000603F0020783F0020EC0C0020040D002030
:1051A000B82EFF1FD808FF1F6830FF1F6C09FF1FB4
:1051B0005808FF1FE82EFF1F0051010058F8FF1F7D
:1051C0004DF0FF1FD8F9FF1F544501005C45010059
:1051D0002C08FF1F4830FF1F040AFF1FF008FF1FA5
:1051E000D02EFF1F08450100EC09FF1F28460100D3
:1051F000902FFF1F243F0020F0F5FF1F08F6FF1F30
:1052000060F6FF1F444601008030FF1F7C4601000E
:105210004C000020904601009830FF1FB04601006E
:10522000B030FF1FCC460100C830FF1FE846010028
:10523000E030FF1F04470100680B0020800AFF1FB9
:10524000800F0020D4F5FF1F68000020F830FF1FFA
:10525000A0F4FF1FB8F4FF1FD0F4FF1FE8F4FF1FF6
:1052600000F5FF1F18F5FF1FA4430020E80C0020E5
:10527000DC08FF1F600AFF1F70450100243C00206E
:10528000B24DB34805F0EAFC2B78092B3FF4BAABDA
:105290001721B0480AF05AFEAF480BF05FF92378A7
:1052A0002B70C82005F056FA4FF6FF71AB4805F099
:1052B00091FFAB49A94805F01BFFAA4BAA481978F2
:1052C00005F09EFBA94BAA48197805F099FBA94B5C
:1052D000A948197805F094FBA84BA948197805F05E
:1052E0008FFBA84803F066F80146A74805F018FDB3
:1052F000A44803F063F80146A44805F081FBA148E7
:1053000003F060F80146A24805F07AFB9D4803F0DF
:1053100065F801469F4805F073FB9A4803F060F872
:1053200001469D4805F06CFBFFF76CBB874D9B4821
:1053300005F094FC2B780A2B3FF464AB23219848AA
:105340000AF004FE84480BF009F923782B70C8207A
:1053500005F000FA934B9448196805F0E1FC934B73
:105360009348196805F0DCFC924B9348196805F0E6
:10537000D7FCFFF747BB754D904805F06FFC2B78C5
:10538000082B3FF43FAB19218D480AF0DFFD72482E
:105390000BF0E4F823782B70C82005F0DBF989497D
:1053A000894805F0A5FE4FF6FF71874805F012FF0A
:1053B000FFF728BB854805F051FC644B1A780D2A8D
:1053C0002DD0227882481A701B210AF0BFFD624856
:1053D000804C0BF0C3F8C82005F0BCF97E4B7F4829
:1053E000196805F09DFC21687D4805F099FC4FF493
:1053F00043717C4805F094FC4FF496717A4805F0AF
:105400008FFC2168794805F08BFC794B7948196845
:1054100005F086FC784B7948196805F081FC784BDB
:10542000784A1B6806937849069C13680968E31A52
:105430008B427FF6E7AA31467448146005F070FC91
:105440003946734805F06CFCFFF7DCBA714805F08B
:1054500005FC3E4B1A780F2A3FF4D4AA22781A7022
:10546000642005F077F900216B486C4C05F0C8FA10
:1054700000216B4805F0C4FA00216A4805F0C0FA23
:1054800069496A4805F034FE6949634805F0E8FA5D
:105490006849634805F0E4FA6749624805F0E0FAB4
:1054A000217A012900F0BD81022900F0C98119B9D2
:1054B00001215C4805F0A4FA604B6148196805F0C9
:1054C0002FFC61695F4805F02BFCA1695E4805F07F
:1054D00027FC5E4B5E48196805F022FC5D4B5E4878
:1054E000196805F01DFC61695C4805F019FCA169AB
:1054F0005B4805F015FCFFF785BA002C3FF482AA43
:105500008BE50020FDF76CFD0021564805F078FA88
:1055100040F6FB51544805F017FE5449524805F037
:10552000E7FD03E440F22371514805F0ADFC294644
:10553000504805F07DFC21464D4805F079FC85E496
:10554000642303FB08F898FBF2F55DE470F8FF1F95
:105550000C0AFF1FD04701004C0EFF1F243B002008
:10556000E84701003C3F0020FCF8FF1F6430FF1FAC
:1055700014F9FF1FF8ECFF1F2CF9FF1F40F6FF1F67
:10558000103D0020ACEFFF1F380B002048F9FF1F33
:1055900060F9FF1F78F9FF1F90F9FF1FB008FF1F88
:1055A000AC470100203B002094FFFF1F58EEFF1F77
:1055B000ACFFFF1F4C0F00207CEEFF1F3C08FF1FBD
:1055C000804701009C470100602FFF1F4C09FF1F0F
:1055D0000C4601004431FF1F5408FF1F500F0020EC
:1055E000680F002078F6FF1F840F0020443C002045
:1055F0001408FF1F78F7FF1FBCEEFF1FE83A0020DA
:10560000A4430020E80C0020DC08FF1F9C0F0020B2
:10561000E4F8FF1F3009FF1F102FFF1F403F00203D
:10562000282FFF1F402FFF1F44460100101EFF1FA1
:105630006447010068470100784701006C09FF1FBB
:10564000943F0020AC3F0020C43F0020D808FF1F3B
:10565000DC3F00202C09FF1FF43F00200C400020FD
:10566000C0EEFF1F940D002090F6FF1F203E0100AA
:10567000582FFF1F5C23FF1F0AA800210BF054F8CE
:1056800000230AA8834907930693ADF820300BF056
:105690002DF906A90A2248460EF06AF801460AA822
:1056A0000BF024F97C4B7D4A7D48A9F5E16903FBA9
:1056B00009F382FB0312DB17C3EBA222D2B2012152
:1056C00005F01AFE4146774805F02AFB0AA80AF0C1
:1056D000EBFFFFF73BB9744804F0CEFD734B724803
:1056E00000241C7004F0D2FD21460AA806940794F9
:1056F000ADF820400BF018F86D490AA80BF0F6F849
:105700006C4804F0B9FD6C4B6A481C6804F0BEFD9F
:105710000A2206A920460EF02BF801460AA80BF033
:10572000E5F80A99654805F0E3FC0AA80AF0BCFF11
:10573000FFF711B9642303FB08F898FBF4F4FFF7B3
:10574000B7BA5F4928460BF00DF900285ED0012159
:105750005C4805F055F9FFF730B9534804F08CFD6B
:10576000524B514800241C7004F090FD21460AA8B9
:105770000AF0DAFF54490AA80BF0B8F84D4804F0D3
:105780007BFD524B4B481C6804F080FD0A2203A9A4
:1057900020460DF0EDFF01460AA80BF0A7F84C4992
:1057A0000AA80BF0A3F8434804F066FD424B4148B9
:1057B0001C6804F06BFD0A2203A920460DF0D8FFF7
:1057C00001460AA80BF092F80A99424805F090FCAD
:1057D0000AA80AF069FFFFF7A1BA39493E480BF061
:1057E000C1F810B30121374805F00AF9FFF7A2B854
:1057F000FDF732FC00287FF424A9FFF7A2B8FDF7DB
:105800002BFC00287FF4D8A9FFF738BA3349284683
:105810000BF0A8F818B30121314805F0F1F8FFF7B3
:10582000CCB8304805F0ECF846E62C492A480BF095
:1058300099F808B301212A4805F0E2F8FFF77AB891
:105840000121294805F0DCF836E62946274805F00D
:10585000EFFA2946264805F0EBFAFFF75ABA284630
:1058600024490BF07FF800283FF4A7A80121224823
:1058700005F0C6F8FFF7A1B81E4917480BF072F8FB
:1058800000283FF457A801211B4805F0B9F8FFF79D
:1058900051B800BF90440100404B4C001F85EB51B4
:1058A00054F0FF1F48FFFF1F1C09FF1F6C3B002027
:1058B000D04501009808FF1F38F6FF1FA0F3FF1F17
:1058C000AC2FFF1FF0EEFF1F8C4501005CF6FF1FA1
:1058D0000846010094EFFF1F2C3F0020BC2FFF1F44
:1058E000640D0020102FFF1F282FFF1FACF7FF1F94
:1058F000B4EEFF1FCC2FFF1F7C0D002008B5FEF774
:105900008FFC012004F026FFFEF788FFF9E700BFB7
:105910002DE9F8430B2181463648374E0AF016FB35
:1059200036480AF01BFE01244FF0000804E004286A
:1059300039D001347F2C29D00125E7B207FA05F3CD
:1059400029462D4886F83B3086F85E5086F85D5033
:1059500008F034F90028EAD11E2129480AF0F6FAA5
:105960000F2C30D900231022214624480AF006FECD
:10597000032124480AF0EAFA013420480AF0EEFD37
:105980007F2C08F1010889F80070D5D1B8F1000F1B
:1059900023D005211C480AF0D9FA18480AF0DEFD88
:1059A0000120BDE8F8831A2118480AF0CFFA0F2C1D
:1059B0000ED900231022214610480AF0DFFD0F48BF
:1059C0000AF0CCFDB5E7294611480AF0BFFAC9E74D
:1059D00029460F480AF0BAFAEBE715210D480AF0FC
:1059E000B5FA06480AF0BAFD89F800804046BDE8DD
:1059F000F88300BF48480100800BFF1F4C0EFF1FBB
:105A00005448010074480100AC4801007848010086
:105A10006C5601009448010010B582B005F0E2F820
:105A20004FF4E1314D4807F017FF02224C494B4833
:105A30000AF05AFD49480AF091FD4A4807F0DCFF98
:105A40000DF10700FFF764FF0023044610229DF8C4
:105A5000071045480AF092FD43480AF07FFD002CEC
:105A600067D0424B01221A706021414804F05EFF6A
:105A70000C2008F02DFF17213E480AF067FA02F0CB
:105A80004FFE034600285ED03B4B01221A703B4973
:105A90003B4802F0D3FC3B49394802F0D1FC3A497B
:105AA0003A4804F0E3F83A49384804F0E1F8364956
:105AB000384804F0DBF83649364804F0D9F8324962
:105AC000354804F0D3F83249334804F0D1F82E4970
:105AD000324804F0CBF82E49304804F0C9F8304978
