:1000000000000320D1010000B5C60000A187000058
:100010006DC60000A9870000B18700006DC6000012
:100020006DC600006DC600006DC60000318800007E
:10003000B5C600006DC60000B5C600001D900000EA
:10004000B5C60000B5C60000B5C60000B5C60000C4
:10005000B5C60000B5C60000B5C60000B5C60000B4
:10006000B5C60000B5C60000B5C60000B5C60000A4
:10007000B5C60000B5C60000B5C60000B5C6000094
:10008000B5C60000B5C60000B5C60000B5C6000084
:10009000B5C60000B5C60000B5C60000B5C6000074
:1000A0007DC1000089C10000B5C60000B5C60000D2
:1000B000B5C60000B5C60000B5C60000E5D6000014
:1000C000B5C6000055EF0000B5C6000081F0000085
:1000D000B5C6000079F10000B5C60000B5C6000045
:1000E000B5C60000B5C60000B5C60000B5C6000024
:1000F000B5C60000B5C60000B5C60000B5C6000014
:10010000B5C60000B5C60000B5C60000B5C6000003
:10011000B5C6000061D90000B5C60000B5C6000034
:10012000B5C60000B5C60000B5C60000B5C60000E3
:10013000B5C60000B5C60000B5C60000B5C60000D3
:10014000B5C60000B5C6000071F20000B5C60000DB
:10015000B5C60000B5C60000B5C60000B5C60000B3
:10016000B5C60000B5C6000095C10000B5C60000C8
:10017000B5C60000B5C60000B5C60000B5C6000093
:10018000B5C60000B5C60000B5C60000B5C6000083
:10019000B5C60000B5C6000069F30000B5C6000092
:1001A000B5C60000B5C60000B5C60000B5C6000063
:1001B000B5C60000B5C60000B5C60000B5C6000053
:1001C000B5C60000B5C60000B5C60000B5C6000043
:1001D0005C4B4CF2205210B51A804DF628121A8052
:1001E00000BF00BF0CF06AFA574B4FF030621A6044
:1001F000564A9A60564ADA60564B4FF470021A60BB
:10020000554B564A1A60564A136813F4807304D14A
:1002100054490B604FF4A8531360534B1A781107DD
:1002200003D51A7842F008021A70504B5049AA229E
:100230001A70504A504B8B4204D252F8040F43F8C4
:10024000040BF8E74D4B4E4900228B4202D243F893
:10025000042BFAE74B494C4A002352F8230041F89B
:1002600023000133742BF8D1484B494A802103F80D
:10027000011B9342FBD1474B424A1A60464B8A22EC
:100280001A70A3F5805324225A70A0221A709A790A
:100290009207FCD59A79D406FCD4404A937903F0AE
:1002A0000C03082BFAD13E4B60221A7002331A78E5
:1002B000802AFCD1394B00221A714E225A719A7948
:1002C0009006FCD59979354A4906FBD5354B364918
:1002D00019600821596020231370937903F00C03EF
:1002E0000C2BFAD1314B324A1A60324B324A1A6027
:1002F00000225A60072243F8042C304AC3F80C2D20
:1003000062B60CF0C9FD174B1B68DA0705D52C48FF
:100310000CF072FB2B4B2C4A1A602C4B1B785B06A3
:1003200009D5284C284B22689A4204D124480CF065
:1003300063FB002323600FF0E7F80CF0C5F90EF023
:10034000C9F9FEE70E20054030800440823F0400DA
:100350000100002B88ED00E0002008E0030000858C
:1003600010D0034014D0034002D0074000E0074003
:100370003018FF1F3C3001003007FF1F3018FF1FEF
:10038000D82200200002FF1F0000000000E400E06F
:1003900064E400E008ED00E0005006400040064044
:1003A00001E007404480044000000703048004404B
:1003B000C010050014E000E07FA903000000202029
:1003C000E3BCFA001CE00340A5C3945A00F00740C8
:1003D000FFFFFFFFFFFFFFFFFFFFFFFFFFFFFFFF2D
:1003E000FFFFFFFFFFFFFFFFFFFFFFFFFFFFFFFF1D
:1003F000FFFFFFFFFFFFFFFFFFFFFFFFFFFFFFFF0D
:10040000FFFFFFFFFFFFFFFFFFFFFFFFDEF9FFFF23
:1004100010B5054C237833B9044B13B10448AFF33E
:1004200000800123237010BD3018FF1F0000000062
:1004300040300100084B10B51BB108490848AFF324
:1004400000800848036803B910BD074B002BFBD0A0
:10045000BDE81040184700BF000000003418FF1F1F
:10046000403001003018FF1F0000000010B52023AD
:1004700083F3118810488368002B19DD0F49104C55
:100480000B681048012201330B60227002700CF0DF
:100490008FFC0D4B0D4A186013680D49C31A0B6091
:1004A0000023106083F31188BDE8104008F0CAB93A
:1004B00008F0FAFBE2E700BFD808FF1FAC050020F8
:1004C000E0F6FF1F2009FF1F7CECFF1FE02DFF1F40
:1004D000F41600200121052008B50CF063FC002172
:1004E00005200CF04BFC642008F0CCFC0121052019
:1004F0000CF044FC642008F0C5FC002105200CF041
:100500003DFCF0E710B582B000240094304B314838
:10051000892240F6C82108F06DFC00942E4B2F482C
:1005200041224FF4847108F065FC00942C4B2D4857
:10053000412240F6986108F05DFC00942A4B2B485C
:10054000412240F6C82108F055FC0094284B294868
:1005500041224FF4A47108F04DFC0094264B27482B
:1005600041224FF4E47108F045FC0094244B2548E7
:1005700041224FF4996108F03DFC0094224B23483E
:1005800041224FF4847108F035FC0094204B21483F
:1005900041224FF4847108F02DFC00941E4B1F483B
:1005A00041224FF4327108F025FC00941C4B1D4889
:1005B00041224FF4A47108F01DFC00941A4B1B4813
:1005C00041224FF4A47108F015FC02B010BD00BF29
:1005D000795A000008F7FF1FD5040000B01700206B
:1005E000313D000038070020A94B0000C021FF1F4B
:1005F0009106000030F5FF1F25400000101AFF1F74
:100600006D060000681CFF1F7942000030060020C4
:100610003106000020020020A90B0000A8EDFF1FFA
:10062000E50A0000C818FF1F853D0000F8EAFF1F1B
:100630000121202008B50CF0B5FB002120200CF092
:100640009DFB012008F01EFC074808F00BFB012170
:1006500020200CF093FB322008F014FC0021202015
:100660000CF08CFBEDE700BFBC08FF1F0121102040
:1006700008B50CF097FB002110200CF07FFB03481D
:1006800006F0B4FA012008F0FDFBF8E74817002057
:100690002DE9F04F012189B006200CF083FB0121E8
:1006A00007200CF07FFB1E491E48DFF890A0DFF802
:1006B0009090DFF8908007F093FE1B49194807F0EF
:1006C00091FE1A49174807F091FE194808F06CF995
:1006D000184BD8F800401E68174BDAF800501F6816
:1006E000D9F800B0124808F069F9012008F0CAFBF7
:1006F0008DE8D0005B462A4621460A4807F09EFD59
:10070000002406AA05A907AB06480594069407F03D
:10071000BBFD079A0599034807F0F2FDD5E700BF36
:100720004907000034F4FF1FA90700000508000076
:100730002C0AFF1FB4F2FF1F00F7FF1F282DFF1F19
:10074000BC180020742EFF1F08B5124B197A01291E
:100750001BD0022905D100224FF42A710E4808F05F
:1007600083FC0E4808F020F90D4B0C4800221A704B
:1007700008F024F9094808F017F90A4B0748012244
:100780001A70BDE8084008F019B907200CF0F6FA15
:10079000E7E700BFD41800208C1700200C09FF1FCA
:1007A000A8160020E0EAFF1F114B197A012910B5A5
:1007B0001AD0022905D100224FF496710D4808F095
:1007C00053FC0D4808F0F0F80C4B0B4801241C704A
:1007D00008F0F4F8084808F0E7F8094B06481C70E0
:1007E000BDE8104008F0EAB806200CF0C7FAE8E7C8
:1007F000D41800208C1700200C09FF1FE0EAFF1F0F
:10080000A8160020144B1B7A012B10B51AD0022B0E
:1008100005D100224FF4C861104808F025FC1048AB
:1008200008F0C2F80F4B0E4800241C7008F0C6F800
:100830000B4808F0B9F80C4B09481C70BDE8104093
:1008400008F0BCB8002107200CF098FA002106201F
:100850000CF094FAE3E700BFD41800208C170020B6
:100860000C09FF1FE0EAFF1FA816002030B5202367
:10087000A3B083F3118861488368002B40F3BA80EA
:1008800008F0DAF9002383F311885D4803A908F022
:10089000B9FD04A95B4808F0B5FD05A95A4808F060
:1008A000B1FD06A9594808F0ADFD07A9584808F060
:1008B000A9FD08A9574808F0A5FD03990A220AA82E
:1008C0000EF076F804990A220EA80EF071F8059938
:1008D0000A2212A80EF06CF806990A2216A80EF049
:1008E00067F807990A221AA80EF062F808990A22F6
:1008F0001EA80EF05DF809A9474808F0F3FB099B14
:10090000002B62D109A9454808F0ECFB099B002B9C
:100910003CD109A9424808F0E5FB099B23B1414AB3
:100920004149424807F0D8FA41494248424D434CB8
:1009300008F076FF0DF10B0007F006F9404A9DF82C
:100940000B00107202F1180114320191009221463D
:100950002A463C4B06F064FF3B493C4B2868226822
:1009600008601EA81A600DF09DFF1AA80DF09AFFEE
:1009700016A80DF097FF12A80DF094FF0EA80DF029
:1009800091FF0AA80DF08EFF23B030BD304A2649F2
:10099000264807F0A1FA0A9A2E492F4807F09CFA38
:1009A000169A2E492C4807F097FA1A9A2C492A4889
:1009B00007F092FA0E9A2B49274807F08DFA129AFF
:1009C0002949254807F088FAAEE7284A164917480A
:1009D00007F082FA0A9A1F49254807F07DFA169A0D
:1009E0001E49234807F078FA1A9A1D49204807F053
:1009F00073FA99E708F058F942E700BFBC08FF1FF7
:100A000028190020401900205819002070190020D2
:100A100088190020A0190020DC2CFF1FF42CFF1FD8
:100A20000C2DFF1F90130100D4120100E4120100ED
:100A30009C13010018060020B808FF1F7409FF1F4F
:100A4000D41800201C09FF1FBCF0FF1F242DFF1F1E
:100A500040130100FC120100541301002013010097
:100A60002C1301007013010080130100D01201004B
:100A70000813010010B582B06946134808F032FB34
:100A8000009BD3B102A9002441F8044D0F4808F09F
:100A9000DFFD0F4807F088FF0E4B019A0C481A60E3
:100AA00007F08CFF23460A2201990B480DF064FEE3
:100AB00009480DF051FE02B010BD0849084808F081
:100AC000AFFE02B010BD00BF9C030020E42DFF1F4D
:100AD000C808FF1F2C170020D40DFF1FA41301000E
:100AE000940500202DE9F84F032008F0CBF9264F9C
:100AF000DFF8A890DFF8A880DFF8A8A0234807F067
:100B000053FF2248D9F80050D8F8006007F056FF8C
:100B1000012008F0B7F91E4807F046FF3C781C4852
:100B200007F04CFF002CE9D0194807F03DFF164BA9
:100B300017484FF0000B83F800B007F03FFF0A2181
:100B400014480DF049FC4FF47A7413480DF004FE7C
:100B500004FB05F000F2E730AAFB0030800908F042
:100B600091F901210F200CF009F904FB06F000F2C5
:100B7000E730AAFB0030800908F084F959460F20BD
:100B80000CF0FCF8BAE700BFA81700201408FF1FFC
:100B90000C09FF1FB0130100D40DFF1F40ECFF1F15
:100BA000B0050020D34D621070B5012108200CF073
:100BB000F9F8012108200CF0E1F81C4E1C4C012032
:100BC00008F060F91B4807F0EFFE1A4807F0F6FE40
:100BD000194808F047F80CF0EBF8092105461748CA
:100BE0000DF0FAFB3168164800230A22691A0DF04D
:100BF000C3FD13480DF0B0FD0C2112480DF0ECFBC5
:100C00000F480DF0A9FD00230A2221680C480DF0C1
:100C1000B3FD002108200CF0B1F820680CF0ECF8CE
:100C2000012108200CF0AAF8C9E700BF7CECFF1FE7
:100C3000EC1500201408FF1FD808FF1FBC1301008B
:100C4000D40DFF1FC813010070B51D4E1D4C1E4D65
:100C5000304607F0A9FE0D211C480DF0BDFB1C4BD2
:100C6000204619680DF0C8FD0F211A480DF0B4FB9D
:100C7000194B204619680DF0BFFD20460DF06CFDA4
:100C8000304607F09BFE284607F08EFE0D211348E4
:100C90000DF0A2FB124B204619680DF0ADFD0621A8
:100CA00010480DF099FB104B204619680A220023CA
:100CB0000DF062FD2846BDE8704007F07FBE00BF22
:100CC000C809FF1FD40DFF1FF408FF1FD813010030
:100CD000E8150020E8130100C4F4FF1FF813010019
:100CE000E8040020081401002C17002008B506486D
:100CF00007F006FD2A2105480DF06EFB0448BDE80B
:100D000008400DF029BD00BFBC21FF1F10140100D9
:100D1000D40DFF1F08B5064807F0DAFC2821054866
:100D20000DF05AFB0448BDE808400DF015BD00BFAA
:100D3000BC21FF1F3C140100D40DFF1F08B5202368
:100D400083F3118807488368002B08DD07F074FFE0
:100D5000002383F31188044B09221A7008BD07F0A1
:100D6000A3FFF3E7BC08FF1FF008FF1F08B520230F
:100D700083F3118807488368002B08DD07F05CFFC8
:100D8000002383F31188044B0B221A7008BD07F06F
:100D90008BFFF3E7BC08FF1FF008FF1F08B52023F7
:100DA00083F3118807488368002B08DD07F044FFB0
:100DB000002383F31188044B06221A7008BD07F044
:100DC00073FFF3E7BC08FF1FF008FF1F08B52023DF
:100DD00083F3118807488368002B08DD07F02CFF98
:100DE000002383F31188044B03221A7008BD07F017
:100DF0005BFFF3E7BC08FF1FF008FF1F08B52023C7
:100E000083F3118807488368002B08DD07F014FF7F
:100E1000002383F31188044B05221A7008BD07F0E4
:100E200043FFF3E7BC08FF1FF008FF1F08B52023AE
:100E300083F3118807488368002B08DD07F0FCFE68
:100E4000002383F31188044B0D221A7008BD07F0AC
:100E50002BFFF3E7BC08FF1FF008FF1F08B5202396
:100E600083F3118807488368002B08DD07F0E4FE50
:100E7000002383F31188044B07221A7008BD07F082
:100E800013FFF3E7BC08FF1FF008FF1FFFF7E6BFE3
:100E900008B5202383F3118807488368002B08DDF9
:100EA00007F0CAFE002383F31188044B0A221A704C
:100EB00008BD07F0F9FEF3E7BC08FF1FF008FF1FAD
:100EC000FFF7E6BFFFF7E4BF08B5202383F31188DF
:100ED00007488368002B08DD07F0AEFE002383F38C
:100EE0001188044B08221A7008BD07F0DDFEF3E7F5
:100EF000BC08FF1FF008FF1F00B5202383B083F359
:100F0000118809488368002B0BDD07F095FE00234C
:100F100083F31188054801A908F0E4F803B05DF8EF
:100F200004FB07F0C1FEF0E7BC08FF1FD01900204A
:100F300008B5202383F311880B488368002B10DD4C
:100F400007F07AFE002383F311880A23074A084832
:100F5000137019460DF040FA0648BDE808400DF040
:100F6000FBBB07F0A1FEEBE7BC08FF1FF008FF1F6B
:100F700074140100D40DFF1F08B5202383F31188DA
:100F80000C488368002B12DD07F056FE002383F324
:100F90001188094B094804221A7007F005FD084B17
:100FA000064801221A70BDE8084007F007BD07F0A7
:100FB0007BFEE9E7BC08FF1FF008FF1F0C09FF1FBD
:100FC000C816002010B5202383F311880C488368CD
:100FD000002B11DD07F030FE002484F31188094B4B
:100FE00009480A221A7007F0DFFC084B06481C70FB
:100FF000BDE8104007F0E2BC07F056FEEAE700BF8C
:10100000BC08FF1FF008FF1F0C09FF1FC8160020B7
:1010100008B5202383F311880C488368002B12DD68
:1010200007F00AFE002383F31188094B09480B22BD
:101030001A7007F0B9FC084B064801221A70BDE887
:10104000084007F0BBBC07F02FFEE9E7BC08FF1F14
:10105000F008FF1F0C09FF1FC816002010B5202341
:1010600083F311880C488368002B11DD07F0E4FD41
:10107000002484F31188094B094803221A7007F0F1
:1010800093FC084B06481C70BDE8104007F096BC66
:1010900007F00AFEEAE700BFBC08FF1FF008FF1FC9
:1010A0000C09FF1FC816002010B5202383F31188F8
:1010B0000B488368002B10DD07F0BEFD002484F38D
:1010C0001188084807F070FC074B06481C7007F0B1
:1010D00075FC064B0A221A7010BD07F0E5FDEBE720
:1010E000BC08FF1F0C09FF1FF0040020F008FF1FC1
:1010F00010B5202383F311880B488368002B10DD83
:1011000007F09AFD002484F31188084807F04CFC8E
:10111000074B06481C7007F051FC064B0A221A7058
:1011200010BD07F0C1FDEBE7BC08FF1F0C09FF1F56
:10113000C0F0FF1FF008FF1F10B5202383F31188B4
:101140000C488368002B11DD07F076FD002484F342
:101150001188094B094807221A7007F025FC084B33
:1011600006481C70BDE8104007F028BC07F09CFD45
:10117000EAE700BFBC08FF1FF008FF1F0C09FF1FB4
:10118000C816002000B5202383B083F311880B48D4
:101190008368002B0FDD07F04FFD002383F31188D8
:1011A000074801A908F02EF90199064808F050F9FE
:1011B00003B05DF804FB07F077FDECE7BC08FF1F08
:1011C00000060020B405002000B5202383B083F37F
:1011D00011880B488368002B0FDD07F02DFD0023DD
:1011E00083F31188074801A908F00CF90199064812
:1011F00008F02EF903B05DF804FB07F055FDECE7AD
:10120000BC08FF1F00060020CC05002010B52023DD
:1012100082B083F3118810488368002B19DD07F032
:101220000BFD002484F311880C4801A907F05AFF34
:10123000019B63B121460A4807F07AFF094807F08D
:10124000B3FB094B074801221A7007F0B7FB02B045
:1012500010BD07F029FDE2E7BC08FF1F88ECFF1F67
:10126000B40300200C09FF1FFCF6FF1F10B520235C
:1012700082B083F3118810488368002B18DD07F0D3
:10128000DBFC002484F311880C4801A907F02AFF35
:10129000019B5BB12146094807F04AFF084807F067
:1012A00083FB084B06481C7007F088FB02B010BD9A
:1012B00007F0FAFCE3E700BFBC08FF1F88ECFF1F44
:1012C0000C09FF1FFCF6FF1F08B5202383F31188CC
:1012D0000E488368002B15DD07F0AEFC002383F376
:1012E00011880B4B0B4802221A7007F05DFB0A4B6A
:1012F000084801221A7007F061FB3220BDE808405F
:1013000007F0C0BD07F0D0FCE6E700BFBC08FF1F38
:10131000F008FF1F0C09FF1FA0F2FF1F10B52023CC
:1013200083F311880C488368002B12DD07F084FCDE
:10133000002484F31188094807F036FB084B07485E
:101340001C7007F03BFB21460648BDE8104007F043
:10135000EFBE07F0A9FCE9E7BC08FF1F0C09FF1F5F
:10136000C0F0FF1F9017002000B5202383B083F347
:1013700011880D488368002B12DD07F05DFC002307
:1013800083F31188094801A908F03CF8019B07483C
:1013900001331946019308F05BF803B05DF804FBD4
:1013A00007F082FCE9E700BFBC08FF1FB0F6FF1F93
:1013B00000B5202383B083F311880D488368002B88
:1013C00012DD07F039FC002383F31188094801A9D5
:1013D00008F018F8019B074801331946019308F0FB
:1013E00037F803B05DF804FB07F05EFCE9E700BFE7
:1013F000BC08FF1FC8F6FF1F00B5202383B083F38E
:1014000011880D488368002B12DD07F015FC0023BE
:1014100083F31188094801A907F0F4FF019B0748ED
:1014200001331946019308F013F803B05DF804FB8B
:1014300007F03AFCE9E700BFBC08FF1F4CECFF1FB8
:1014400010B5202383F311880E488368002B16DD26
:1014500007F0F2FB002383F311880B4A0B4B0C4877
:10146000012414701C7007F09FFA0A4B08481C7086
:1014700007F0A4FA3220BDE8104007F003BD07F0E2
:1014800013FCE5E7BC08FF1FF008FF1F180200204F
:101490000C09FF1FA0F2FF1F10B5202383F3118852
:1014A0000F488368002B18DD07F0C6FB002484F387
:1014B000118812210B480CF08FFF0B480DF04CF9EE
:1014C0000A4B0B480A221A7007F06EFA094B0848BB
:1014D0001C70BDE8104007F071BA07F0E5FBE3E7C8
:1014E000BC08FF1F80140100D40DFF1FF008FF1F70
:1014F0000C09FF1FFCF6FF1F10B5202388B083F3F3
:10150000118821488368002B3ADD07F095FB002401
:1015100084F311881D4802A907F0E4FD029B4BB338
:1015200021461B4807F004FE21461A4807F000FE3A
:1015300019491A4808F074F907AA06AB01920093FA
:10154000204605AB04AA03A906F06AF9042803D0D3
:101550001349124808F064F90399124807F078FF1C
:101560000499114807F074FF0599104807F070FFBF
:1015700008B010BD0121054807F0DAFD08B010BD24
:1015800007F092FBC1E700BFBC08FF1F0C2DFF1F37
:10159000DC2CFF1FF42CFF1F8823010018060020FD
:1015A00094140100281900207019002088190020C7
:1015B00010B5202388B083F3118825488368002B59
:1015C00043DD07F039FB002484F31188214802A988
:1015D00007F088FD029B002B31D021461E4807F002
:1015E000A7FD21461D4807F0A3FD1D491D4808F031
:1015F00017F907AA06AB0192009304AA05AB03A949
:10160000022006F00DF9042803D01749154808F008
:1016100007F90399154807F01BFF0699144807F0CE
:1016200017FF0799134807F013FF0499124807F0B2
:101630000FFF0599114807F00BFF08B010BD0121FD
:10164000044807F075FD08B010BD07F02DFBB8E7A2
:10165000BC08FF1FF42CFF1FDC2CFF1F0C2DFF1FED
:101660008823010018060020941401002819002086
:1016700040190020581900207019002088190020F6
:1016800010B5202383F311880F488368002B17DDE2
:1016900007F0D2FA002383F311880C4807F084F98D
:1016A0000B4B0A4801241C7007F088F9074807F023
:1016B0007BF9084B05481C70BDE8104007F07EB967
:1016C00007F0F2FAE4E700BFBC08FF1F0C09FF1F98
:1016D000C0F0FF1FC82CFF1F10B5202388B083F374
:1016E000118821488368002B3ADD07F0A5FA002411
:1016F00084F311881D4802A907F0F4FC029B4BB348
:1017000021461B4807F014FD21461A4807F010FD3A
:1017100019491A4808F084F807AA06AB0192009309
:1017200004AA05AB03A9012006F07AF8042803D027
:101730001349124808F074F80399124807F088FE1C
:101740000499114807F084FE0599104807F080FEBF
:1017500008B010BD0121054807F0EAFC08B010BD33
:1017600007F0A2FAC1E700BFBC08FF1FDC2CFF1F77
:10177000F42CFF1F0C2DFF1F8823010018060020EA
:1017800094140100281900207019002088190020E5
:1017900000B5202383B083F311880D488368002BA4
:1017A00012DD07F049FA002383F31188094801A9E3
:1017B00007F028FE019909B101390191054807F0A8
:1017C00047FE03B05DF804FB07F06EFAE9E700BFDF
:1017D000BC08FF1FB0F6FF1F00B5202383B083F3C2
:1017E00011880D488368002B12DD07F025FA0023CD
:1017F00083F31188094801A907F004FE019909B192
:1018000001390191054807F023FE03B05DF804FBA0
:1018100007F04AFAE9E700BFBC08FF1FC8F6FF1F40
:1018200010B5202382B083F3118813488368002BFE
:101830001EDD07F001FA002383F311880F4801A988
:1018400007F050FC019C0E4844B907F0ADF80D4B71
:101850000B481C7007F0B2F802B010BD07F0A4F8F6
:10186000084B074801221A7007F0A8F802B010BD13
:1018700007F01AFADDE700BFBC08FF1FB819002007
:101880000C09FF1FFCF4FF1F00B5202383B083F376
:1018900011880D488368002B12DD07F0CDF9002375
:1018A00083F31188094801A907F0ACFD019909B13A
:1018B00001390191054807F0CBFD03B05DF804FB49
:1018C00007F0F2F9E9E700BFBC08FF1F4CECFF1F6F
:1018D00010B5202382B083F3118813488368002B4E
:1018E0001EDD07F0A9F9002383F311880F4801A931
:1018F00007F0F8FB019C0E4844B907F055F80D4B72
:101900000B481C7007F05AF802B010BD07F04CF8F5
:10191000084B074801221A7007F050F802B010BDBA
:1019200007F0C2F9DDE700BFBC08FF1FE81900207F
:101930000C09FF1FF108FF1F10B5202382B083F3AD
:1019400011881E488368002B35DD07F075F90024E7
:1019500084F311881A4801A907F0C4FB019B63B9FD
:10196000184A19491948137007F05AFF40F6FB51FD
:10197000164807F081FF02B010BD2146144807F059
:10198000D7FB2146134807F0D3FB0E4B1248012228
:101990001A7007F009F8114B0F481C7007F00EF889
:1019A0000F490A4807F03CFF40F28A21074807F038
:1019B00063FF02B010BD07F077F9C6E7BC08FF1F50
:1019C000B403002088170020A814010054F3FF1F5F
:1019D0002C040020440400200C09FF1FC0F0FF1F4E
:1019E0009C14010010B5202383F3118811488368EB
:1019F000002B1CDD07F020F9002484F311880E4829
:101A0000214607F095FB21460C4807F091FB214643
:101A10000B4807F043FE0B4806F0C6FF0A4A0B4B83
:101A2000126808481A60BDE8104006F0C7BF07F00A
:101A30003BF9DFE7BC08FF1F6C0300208403002094
:101A4000E42DFF1FC808FF1F7409FF1F2C1700207B
:101A500010B5202382B083F3118811488368002BCE
:101A60001BDD07F0E9F8002484F311880D482146B6
:101A700007F05EFB21460C4807F05AFB01A90B4812
:101A800007F0C0FC0A4806F08FFF0A4B019A08488D
:101A90001A6006F093FF02B010BD07F005F9E0E709
:101AA000BC08FF1F840300209C030020F4180020C2
:101AB000C808FF1F2C17002010B5202382B083F325
:101AC000118811488368002B1BDD07F0B5F800244E
:101AD00084F311880D48214607F02AFB21460C4863
:101AE00007F026FB01A90B4807F08CFC0A4806F01A
:101AF0005BFF0A4B019A08481A6006F05FFF02B0CC
:101B000010BD07F0D1F8E0E7BC08FF1F6C03002010
:101B10009C0300200C190020C808FF1F2C17002070
:101B2000F8B506463D483E4C06F03EFF3D4B3B486F
:101B30001D6806F043FF3C4A23681268934203D2B3
:101B40003A4A1268954263DB394A117800295DD020
:101B5000002738493848394D17701B01DFF808E174
:101B600000680968E8502B44DEF8002034489A6089
:101B7000B14288BF3E4607215E600CF02DFC236811
:101B800030481A013B46A9580A220CF0F5FD052100
:101B90002D480CF021FC23682A4805EB03123B4634
:101BA00051680A220CF0E8FD042128480CF014FCCE
:101BB0002368244805EB03123B4691680A220CF087
:101BC000DBFD20480CF0C8FD144806F0EDFE23684C
:101BD0001F49204A11481B01EE18EB5875680D602B
:101BE000136006F0EBFE23681B4840F6B7329342C1
:101BF000C5BF1A4A012301331370236006F0D4FED7
:101C0000174B154801221A7006F0D8FE0120F8BDC6
:101C10000BF0CEF8134B18600120F8BDC809FF1F68
:101C2000A4EDFF1FC4F4FF1F040AFF1F7808FF1F65
:101C30002009FF1F7409FF1FAC050020482FFF1F5C
:101C4000B0140100D40DFF1FB8140100C01401002E
:101C5000D82CFF1FF40400200C09FF1FFDF4FF1F08
:101C6000ACF6FF1FE02DFF1FF4160020F0B5202377
:101C700089B083F3118826488368002B1ADD06F0AB
:101C8000DBFF002383F31188224802A907F02AFA18
:101C9000029B4BB1204C237A022B0ED01F492048C7
:101CA00007F0BEFD09B0F0BD1E491D4807F0B8FDA4
:101CB00009B0F0BD06F0F8FFE1E703A91A481B4E92
:101CC0001B4D07F09FFB039904A80A220CF070FE3D
:101CD000049A1849184806F0FFF81849104807F008
:101CE0009FFD04F11807207A154B1434324629461B
:101CF0008DE8900005F094FD12493068124B2A6877
:101D0000086004A81A600CF0CDFD09B0F0BD00BF5A
:101D1000BC08FF1F84030020D4180020C814010051
:101D200094050020A41301000C190020B808FF1F1F
:101D30007409FF1F8013010054130100D414010023
:101D40001C09FF1FBCF0FF1F242DFF1FF0B520232F
:101D500089B083F3118826488368002B1ADD06F0CA
:101D60006BFF002383F31188224802A907F0BAF918
:101D7000029B4BB1204C237A022B0ED01F492048E6
:101D800007F04EFD09B0F0BD1E491D4807F048FDA3
:101D900009B0F0BD06F088FFE1E703A91A481B4E21
:101DA0001B4D07F02FFB039904A80A220CF000FE3C
:101DB000049A1849184806F08FF81849104807F097
:101DC0002FFD04F11807207A154B143432462946AA
:101DD0008DE8900005F024FD12493068124B2A6806
:101DE000086004A81A600CF05DFD09B0F0BD00BFEA
:101DF000BC08FF1F6C030020D4180020C814010089
:101E000094050020A4130100F4180020B808FF1F57
:101E10007409FF1F7013010054130100D414010052
:101E20001C09FF1FBCF0FF1F242DFF1F00B520233E
:101E300083B083F311881C488368002B15DD06F0FE
:101E4000FBFE002383F311881848694607F04AF91E
:101E5000009B1BB1164B1B7A022B09D01549164863
:101E600007F0DEFC03B05DF804FB06F01DFFE6E7BB
:101E700001A9124807F0C6FA019B10480133194620
:101E8000019307F0E5FA0E4806F08EFD0D4B019A1E
:101E90000B481A6006F092FD0B49074807F0C0FC9A
:101EA00003B05DF804FB00BFBC08FF1F84030020E3
:101EB000D4180020A4130100940500200C19002060
:101EC000C808FF1F2C1700208823010000B520231D
:101ED00083B083F311881C488368002B30DD06F043
:101EE000ABFE002383F311881848694607F0FAF81F
:101EF000009B1BB1164B1B7A022B06D015491648C6
:101F000007F08EFC03B05DF804FB01A9134807F04D
:101F100079FA019909B101390191104807F098FA4D
:101F20000F4806F041FD0F4B019A0D481A6006F06C
:101F300045FD0D49084807F073FC03B05DF804FB4C
:101F400006F0B2FECBE700BFBC08FF1F84030020F1
:101F5000D4180020A4130100940500200C190020BF
:101F6000C808FF1F2C1700208823010000B520237C
:101F700083B083F311881C488368002B30DD06F0A2
:101F80005BFE002383F311881848694607F0AAF81E
:101F9000009B1BB1164B1B7A022B06D01549164825
:101FA00007F03EFC03B05DF804FB01A9134807F0FD
:101FB00029FA019909B101390191104807F048FA4D
:101FC0000F4806F0F1FC0F4B019A0D481A6006F01D
:101FD000F5FC0D49084807F023FC03B05DF804FB4D
:101FE00006F062FECBE700BFBC08FF1F6C030020B9
:101FF000D4180020A413010094050020F418002038
:10200000C808FF1F2C1700208823010000B52023DB
:1020100083B083F311881C488368002B15DD06F01C
:102020000BFE002383F311881848694607F05AF81D
:10203000009B1BB1164B1B7A022B09D01549164881
:1020400007F0EEFB03B05DF804FB06F02DFEE6E7BB
:1020500001A9124807F0D6F9019B1048013319462F
:10206000019307F0F5F90E4806F09EFC0D4B019A1E
:102070000B481A6006F0A2FC0B49074807F0D0FB9A
:1020800003B05DF804FB00BFBC08FF1F6C03002019
:10209000D4180020A413010094050020F418002097
:1020A000C808FF1F2C1700208823010030B520230B
:1020B00083B083F3118821488368002B3BDD06F051
:1020C000BBFD002484F311881D4801A907F00AF81C
:1020D000019D95B91B4806F067FC1B4B19481D7004
:1020E00006F06CFC19491A4807F09AFB40F6FB51C0
:1020F000174807F0C1FB03B030BD2146154807F073
:1021000017F82146144807F013F8144B14491048E7
:102110001C7007F085FB4FF478410D4807F0ACFBCD
:10212000084806F041FC084B064801221A7006F0E8
:1021300045FC03B030BD06F0B7FDC0E7BC08FF1F8B
:1021400088ECFF1F0C09FF1FF0040020A8140100F9
:1021500054F3FF1F5C040020440400205C050020B1
:102160006C19010030B5202383B083F31188214816
:102170008368002B3BDD06F05FFD002484F31188AB
:102180001D4801A906F0AEFF019D95B91B4806F058
:102190000BFC1B4B19481D7006F010FC19491A481E
:1021A00007F03EFB40F6FB51174807F065FB03B014
:1021B00030BD2146154806F0BBFF2146144806F005
:1021C000B7FF0E4806F0F0FB0D4B0C4801241C70C5
:1021D00006F0F4FB0F4B10490B481C7007F020FB76
:1021E00041F21701084807F047FB03B030BD06F085
:1021F0005BFDC0E7BC08FF1FB40300200C09FF1FF4
:10220000F0040020A814010054F3FF1F2C04002048
:102210005C0400205C050020DC14010000B52023D4
:1022200083B083F3118815488368002B23DD06F003
:1022300003FD002383F31188114801A907F0E2F898
:10224000104B019A10481A6001A907F0DBF80F4BF8
:10225000019A0F481A6001A907F0D4F80D4B019AB2
:102260000D481A6001A907F0CDF80C4B019A1A60CD
:1022700003B05DF804FB06F017FDD8E7BC08FF1FAC
:10228000E4F3FF1F1008FF1FD015002084ECFF1F90
:10229000B40500206808FF1FCC050020C02EFF1FDA
:1022A00010B5202382B083F311881C488368002B6B
:1022B00030DD06F0C1FC002484F311880D2118489C
:1022C0000CF08AF817480CF047FA01A9164806F0F6
:1022D00009FF019B5BB12146134806F029FF134813
:1022E00006F062FB124B11481C7006F067FB0F48AA
:1022F00006F05AFB0F4B0D4801241C7006F05EFBE4
:102300000A4806F051FB0C4B08481C7006F056FBBF
:1023100002B010BD06F0C8FCCBE700BFBC08FF1F31
:10232000E8140100D40DFF1F88ECFF1F0C09FF1FEC
:10233000FCF6FF1FD0ECFF1F0C17002000B5202378
:1023400091B083F3118828488368002B49DD06F09B
:1023500073FC002383F31188244802A907F052F884
:102360002349244807F05CFA03A9234807F04AF8F8
:1023700001A9224807F046F8019904A80A220CF0A6
:1023800017FB029908A80A220CF012FB03990CA86B
:102390000A220CF00DFB089A19491A4805F09CFD19
:1023A0000C9A1949174805F097FD049A17491548E2
:1023B00005F092FD164806F0F7FA164A1649174836
:1023C00005F0B6FA124806F0F9FA0CA80CF06AFA11
:1023D00008A80CF067FA04A80CF064FA11B05DF8D4
:1023E00004FB06F061FCB2E7BC08FF1FB0F6FF1F5C
:1023F000D4140100FCF1FF1FC8F6FF1F4CECFF1FB7
:10240000F8140100041501001C1501003815010025
:102410001408FF1FB005002040ECFF1FEC15002042
:1024200000B52023A1B083F3118845488368002BB1
:1024300040F3828006F000FC002383F311884148BA
:1024400002A906F0DFFF03A93F4806F0DBFF04A95D
:102450003E4806F0D7FF05A93D4806F0D3FF06A980
:102460003C4806F0CFFF07A93B4806F0CBFF029996
:1024700008A80A220CF09CFA03990CA80A220CF076
:1024800097FA049910A80A220CF092FA059914A858
:102490000A220CF08DFA069918A80A220CF088FA84
:1024A00007991CA80A220CF083FA089A2B492C4899
:1024B00005F012FD0C9A2B49294805F00DFD109AE4
:1024C0002949274805F008FD149A2849244805F0B1
:1024D00003FD189A2649224805F0FEFC1C9A25495E
:1024E0001F4805F0F9FC2449244807F099F92448CD
:1024F00006F05AFA234A244B244901920093244AB5
:10250000244B254805F0C8F91D4806F057FA1CA8C9
:102510000CF0C8F918A80CF0C5F914A80CF0C2F911
:1025200010A80CF0BFF90CA80CF0BCF908A80CF02E
:10253000B9F921B05DF804FB06F0B6FB7AE700BFFD
:10254000BC08FF1F6CF1FF1F84F1FF1F9CF1FF1FF0
:10255000B4F1FF1FCCF1FF1F70F0FF1F50150100F9
:10256000701501008C150100B0150100D015010097
:10257000F0150100101601009C130100500300200B
:102580002C0AFF1F00F7FF1FB4F2FF1F282DFF1FAB
:10259000BC180020742EFF1FE405002070B504460F
:1025A00008460D460EF02CF82368024629462046C0
:1025B0005B68BDE87040184738B5044608460D46CC
:1025C0000EF01EF82368024629465B6820469847AD
:1025D000054620460CF0C0F8284438BD10B5064C1E
:1025E000204606F0E1F9054A136820460133BDE8AC
:1025F0001040136006F0E2B97C08FF1F00F3FF1FD4
:1026000010B50446044806F0CFF96478024806F095
:10261000D5F9204610BD00BF0C09FF1F08B50121E8
:1026200010200AF0ABFB0A2006F02CFC0021102041
:10263000BDE808400AF0A2BB70B50C210F4C104851
:10264000104D0BF0C9FE10480CF086F8204606F03D
:10265000ABF9012620466E7006F0B0F92846FFF768
:10266000DDFF2846FFF7BAFF204606F09DF9074B2D
:1026700020461E70BDE8704006F0A0B90C09FF1F8F
:1026800030160100A02CFF1FD40DFF1F20160020C4
:1026900010B5202384B083F3118812488368002B7F
:1026A0001DDD06F0C9FA002484F31188FFF7C4FF8A
:1026B0000D4801940294ADF80C4006F075F90B4BEF
:1026C00009481C6806F07AF901A90A2220460EF092
:1026D000EFFB0146064807F0A3F804B010BD06F072
:1026E000E3FADEE7BC08FF1F7C08FF1F00F3FF1FB3
:1026F000DCF0FF1FA94AAA4938B5104607F00EF9C9
:10270000A84AA949A94DAA4C104607F007F9A94AB9
:10271000A949104607F002F9A84AA949104607F04E
:10272000FDF8A84AA849104607F0F8F8A74AA849B2
:10273000104607F0F3F8A74AA749104607F0EEF84D
:10274000A64AA749104607F0E9F8A64AA649104646
:1027500007F0E4F8A54AA649104607F0DFF8A54AB5
:10276000A549104607F0DAF8A44AA549104607F033
:10277000D5F8A44AA449104607F0D0F8A34AA449C2
:10278000104607F0CBF8A34AA349104607F0C6F855
:10279000A24AA349104607F0C1F8A24AA24910462E
:1027A00007F0BCF8A14AA249104607F0B7F8A14AC1
:1027B000A149104607F0B2F8A04AA149104607F017
:1027C000ADF8A04AA049104607F0A8F89F4AA049D2
:1027D000104607F0A3F89F4A9F49104607F09EF85D
:1027E0009E4A9F49104607F099F89E4A9E49104616
:1027F00007F094F89D4A9E49104607F08FF89D4ACD
:102800009D49104607F08AF89C4A9D49104607F0FA
:1028100085F89C4A9C49104607F080F89B4A9C49E1
:10282000104607F07BF89B4A9B49104607F076F864
:102830009A4A9B49104607F071F89A4A9A491046FD
:1028400007F06CF8994A9A49104607F067F8994AD8
:102850009949104607F062F8984A9949104607F0DE
:102860005DF8984A9849104607F058F8974A9849F1
:10287000104607F053F8974A9749104607F04EF86C
:10288000964A9749104607F049F8964A96491046E5
:1028900007F044F82A469549954807F03FF8224644
:1028A0009449954807F03AF8944A9549954807F0B5
:1028B00035F8954A9549964807F030F8954A964973
:1028C000964807F02BF82A462846954907F026F83F
:1028D00022462046934907F021F8934A934910462F
:1028E00007F01CF8924A9349104607F017F8924AED
:1028F0009249104607F012F8914A9249104607F0A3
:102900000DF8914A9149104607F008F8904A91490C
:10291000104607F003F8904A9049104606F0FEFF73
:102920008F4A9049104606F0F9FF8F4A8F491046AA
:1029300006F0F4FF8E4A8F49104606F0EFFF8E4AEC
:102940008E49104606F0EAFF8D4A8E49104606F081
:10295000E5FF8D4A8D49104606F0E0FF8C4A8D490F
:10296000104606F0DBFF8C4A8C49104606F0D6FF75
:102970008B4A8C49104606F0D1FF8B4A8B49104692
:1029800006F0CCFF8A4A8B49104606F0C7FF8A4AF8
:102990008A491046BDE8384006F0C0BF8C2DFF1FA5
:1029A000310F0000A42DFF1FC50E0000F015002000
:1029B0000816002088ECFF1F0D120000B403002051
:1029C0006D120000CC03002001600000A0ECFF1F8E
:1029D0006D5D0000E4030020DD5D0000FC030020CD
:1029E0004D5E000014040020BD5E00005018FF1F63
:1029F000912600006818FF1FA12200008018FF1F09
:102A000099140000C4F0FF1FCD5F00009017002054
:102A100081160000E8F2FF1F1D1300000CF3FF1FDA
:102A2000F1100000B819002021180000E81900205A
:102A3000D1180000D0190020F90E00001017002056
:102A4000C10E0000882CFF1F790F0000FCF3FF1F50
:102A50009D0D000084F3FF1FFD0D0000B4F3FF1F68
:102A60008D0E00006CF3FF1F4114000064ECFF1F8B
:102A7000C9120000CCF3FF1FCD0D00009CF3FF1F17
:102A80002D0E00002C040020AD2000004404002086
:102A9000652100005C040020391900009016002018
:102AA000A9100000F0ECFF1FA15F000060050020EE
:102AB0001110000018F5FF1FC50F00007C05002055
:102AC000C90E0000782EFF1F39110000902EFF1F45
:102AD0001D220000A82EFF1F8511000008EDFF1F1A
:102AE000C911000068EDFF1F3D0D0000910E0000B0
:102AF000000200206D080000E4F1FF1FB8F2FF1F84
:102B0000D9160000DC2CFF1FD0F2FF1FB11500000A
:102B1000F42CFF1F24F3FF1FF91400000C2DFF1FDE
:102B20006D0D000021240000E42DFF1F750A000038
:102B30006C030020511A000084030020B91A000021
:102B40009C030020E5190000B8ECFF1F6D1F00007A
:102B5000F4F0FF1F0D2000000CF1FF1FCD1E000040
:102B600024F1FF1F2D1E00003CF1FF1F4D1D000032
:102B700054F1FF1F5D10000050EDFF1F6D1C0000A1
:102B80009818FF1F91170000B018FF1F691300006D
:102B9000D81BFF1F3D230000F01BFF1F5D0E000030
:102BA000742DFF1FD9170000B02CFF1FB1130000B8
:102BB000201CFF1F89180000381CFF1FF91300009C
:102BC00010B5094805F0F0FE084B1C7824B90648FA
:102BD00005F0F4FE204610BD002203481A7005F0EF
:102BE000EDFE204610BD00BF0C09FF1FACF6FF1F15
:102BF00010B5054805F0D8FE044B03481C7805F0D5
:102C0000DDFE204610BD00BF0C09FF1FFCF6FF1FB4
:102C100010B5054805F0C8FE044B03481C7805F0C4
:102C2000CDFE204610BD00BF0C09FF1FC0F0FF1FE6
:102C300010B5054805F0B8FE044B03481C7805F0B4
:102C4000BDFE204610BD00BF0C09FF1FF004002090
:102C500010B5154C237813B1012B15D010BDFFF71B
:102C6000E7FF70B1202111480BF0B6FB10480BF0C4
:102C700073FD012323700F490F48BDE8104003F096
:102C8000B1BF2378012BE9D121210C480BF0A4FB23
:102C900007480BF061FD0023237009490648BDE891
:102CA000104003F09FBF00BF7805002064160100AC
:102CB000D40DFF1F2D5F00004817002040160100B3
:102CC0003926000010B5054805F06EFE044B034898
:102CD0001C7805F073FE204610BD00BF0C09FF1FD5
:102CE000D0ECFF1F10B5054805F05EFE044B03480D
:102CF0001C7805F063FE204610BD00BF0C09FF1FC5
:102D0000C816002010B5054805F04EFE044B0348D8
:102D10001C7805F053FE204610BD00BF0C09FF1FB4
:102D2000FCF4FF1F10B5054805F03EFE044B0348B8
:102D30001C7805F043FE204610BD00BF0C09FF1FA4
:102D4000F108FF1F10B5054805F02EFE044B03489F
:102D50001C7805F033FE204610BD00BF0C09FF1F94
:102D6000C82CFF1F10B5054805F01EFE044B034894
:102D70001C7805F023FE204610BD00BF0C09FF1F84
:102D80002016002038B5094C0546204605F00CFEFB
:102D9000074B08481D7014210BF01EFB06480BF072
:102DA000DBFC2046BDE8384005F008BE0C09FF1FDB
:102DB000D42CFF1F88160100D40DFF1F10B5054845
:102DC00005F0F2FD044B03481C7805F0F7FD2046A2
:102DD00010BD00BF0C09FF1FA0F2FF1F10B5054872
:102DE00005F0E2FD044B03481C7805F0E7FD2046A2
:102DF00010BD00BF0C09FF1FD42CFF1F10B50548E4
:102E000005F0D2FD044B03481C7805F0D7FD2046A1
:102E100010BD00BF0C09FF1F0C1700202DE9F04F5B
:102E2000AD4C2368DB078FB040F1E980AB48AC4D77
:102E3000AC4C05F0B9FDAC49AC4AAD4BA748D5F850
:102E40000090D1F8008015681E6805F0B7FDA9480C
:102E500005F0AAFDA84BA7481F6805F0AFFD237831
:102E6000013B0C2B00F2C880DFE813F0DB00880187
:102E700057027D0200036B03A7034304BC03310424
:102E8000EE04C6003A05DAF800109C4806F0E0FAB5
:102E900021460AA80BF046FD994906940AA8079412
:102EA000ADF820400BF0FAFD964805F07DFD964BFD
:102EB00094481D6805F082FD0A2206A928460DF0F7
:102EC000F7FF01460AA80BF0E9FD0A998F4806F0C2
:102ED000A7FC01218E4806F02BF98E498E4806F09A
:102EE00057F98E498E4806F053F98E498E4806F000
:102EF0004FF98E498E4806F04BF92146864806F078
:102F000017F92146864806F013F92146864806F04F
:102F10000FF92146864806F00BF9864986480BF0E2
:102F2000F9FD002800F0828601217B4806F000F9B7
:102F30000AA80BF0B7FCFFF743FE002840F05085CD
:102F4000FFF710FF002840F07A85FFF737FF0028D1
:102F500052D07A48784D05F027FD794B7748002408
:102F60001C7005F02BFD774B6448196806F070FA69
:102F70002146694806F0DCF82146694806F0D8F891
:102F80002146694806F0D4F82146694806F0D0F891
:102F900029686D4806F044FC284666490BF0BAFDE6
:102FA000002800F0828501215B4806F0C1F800216D
:102FB0000AA80BF0B7FC0023514907930AA806930F
:102FC000ADF820300BF06AFD4E4805F0EDFC4E4B9D
:102FD0004C481C6805F0F2FC0A2206A920460DF0B8
:102FE00067FF01460AA80BF059FD0A99474806F009
:102FF00017FC0AA80BF056FC0FB0BDE8F08F204676
:1030000009F07AFB00283FF411AF4E4B4F491B6883
:103010004F4AA1FB0313DB092046136009F072FB42
:1030200004E7DFF854B14B4806F0B0F99BF80030E4
:10303000012B00F006864148DFF808A1444E464DBA
:10304000464F05F0B1FC464B3C4800221A700192F5
:1030500005F0B4FC172143480BF0BEF942480BF0D1
:103060007BFB4FF4967005F00DFF08213F480BF0F5
:10307000B3F93D480BF070FBDAF8003033492078A3
:103080008BF80000A1FB0323019A39492A60DB0970
:103090000A7033601946344813460A220BF06CFB61
:1030A00031480BF059FB40F2911402E0013C3FF42F
:1030B000EAAE012005F0E6FE2A683368134407EB08
:1030C00003122B605268002AF0D0D2B201212948A5
:1030D00006F064FCEAE700BF04F7FF1FC809FF1F02
:1030E000D82CFF1FF008FF1FF404002080ECFF1F06
:1030F000E8150020F408FF1FF018002078F6FF1FE5
:10310000D01601007C08FF1F00F3FF1FDCF0FF1F3B
:10311000B4030020E4160100A0ECFF1FF01601002C
:10312000E4030020FC160100FC0300200817010046
:1031300014040020342DFF1FC41800200C09FF1FA9
:10314000A0F2FF1F24190020C4F0FF1F1F85EB51C0
:1031500004F3FF1F8809FF1F08F3FF1F482FFF1FFD
:103160000C17002000190100D40DFF1F18190100D1
:10317000180200209CEDFF1FBDF4FF1FDFF8A8B26E
:10318000954806F003F99BF80030022B00F06085AB
:10319000924805F009FC924B904800261E7005F0FD
:1031A0000DFC23788F488BF8003019210BF014F9AF
:1031B0008D480BF0D1FA31460AA806960796ADF86D
:1031C00020600BF0AFFB89490AA80BF067FC884828
:1031D00005F0EAFB874B86481C6805F0EFFB0A22E6
:1031E000204606A90DF064FE01460AA80BF056FC25
:1031F00081490AA80BF052FC7D4805F0D5FB7F4BB6
:103200007B481C6805F0DAFB0A2206A920460DF06F
:103210004FFE01460AA80BF041FC0A99784806F0D7
:10322000FFFA3146774806F09BF93146764806F0BA
:1032300097F9764B7648196806F0F2FA0AA80BF06F
:1032400031FBFFF7BDFC00284ED0724B72491C6861
:10325000A5F54875652303FB05F281FB0215642C77
:103260004FEAE272C2EB252540F3188403FB08F312
:10327000013493FBF4F4642C28BF64244B2D8CBFE1
:103280004FF4784140F223715F4806F095F92146EA
:103290005C4806F065F929465B48002506F060F9B0
:1032A000294606A804950395ADF814500BF03AFB97
:1032B0000A2203A920460DF0FBFD03A906A80BF086
:1032C000A7FB564906A80BF0E9FB0699544806F0FF
:1032D000A7FA642C00F0E284FFF744FD002840F0D8
:1032E000658406A80BF0DEFAFFF778FD002840F0B1
:1032F0006683FFF763FD00283FF47EAE374805F094
:1033000053FB484B354800221A7005F057FB3F4BE2
:103310003F48196806F084FA6EE6434D434806F0CC
:1033200035F82B78032B17D0142141480BF054F8B3
:103330002D480BF011FA23782B70C82005F0A2FD60
:10334000FFF7E0FC01463B4805F0F2FEFFF7EAFC20
:103350000146394805F0ECFE05F0F6F9014637481C
:1033600006F076F848E6304D354806F00FF82B7831
:10337000042B3FF441AE1D213248334E0BF02CF8A4
:1033800019480BF0E9F923782B70C82005F07AFD75
:1033900071692E4806F05CF8B1692D4806F058F8BE
:1033A00000212C4805F0C4FE00212B4805F0C0FE8A
:1033B00001212A4805F0BCFE294B2A48196806F06D
:1033C0009DF9294B2748196806F0DEF900212548A8
:1033D00006F064F910E600BF600AFF1F0C09FF1F2A
:1033E0000C17002024190100D40DFF1FD016010076
:1033F0007C08FF1FE0F4FF1F5017010000F3FF1FC0
:10340000D8ECFF1F2CF4FF1FBC2DFF1FE4EAFF1FA9
:10341000F0ECFF1F2419002037800B6D4C170100C2
:10342000C82DFF1FA0F2FF1FBDF4FF1F4C0AFF1F96
:103430006C180100B8190020E8190020081CFF1FB3
:103440002409FF1F84180100D4180020F41800205C
:103450000C1900206C030020840300209C03002032
:10346000B808FF1FE42DFF1F7409FF1FB34805F0C4
:103470008DFFB34B1A78052A08D02278B1481A700C
:103480001D210AF0A9FFB0480BF066F9FFF798FB81
:1034900000283FF4B1ADAD4BAD4C1A68A5F54875A9
:1034A000652303FB05F584FB0514642A4FEAE575E3
:1034B000C5EB242440F37D8203FB08F3551C93FBEA
:1034C000F5F54B2C40F267824FF47841A14806F0A5
:1034D00073F82946A04806F043F821469D4806F0B7
:1034E0003FF8642C0FD100219C4805F021FE0021FB
:1034F0009B4805F01DFE00219A4805F019FE0021A9
:10350000994805F015FE002319460AA8079306936B
:10351000ADF820300BF006FA0A2206A928460DF075
:10352000C7FC06A90AA80BF073FA0AA88F490BF08A
:10353000B5FA0A998E4806F073F90AA80BF0B2F9A9
:103540005AE58C4805F022FF7D4B1A78062A0CD0EC
:10355000227889481A70002106F002F81321874862
:103560000AF03AFF78480BF0F7F8854805F01CFAA6
:10357000844B83481C6805F021FA834A631E302B74
:103580008CBF116840F22371A4F133034FF6E07051
:103590000A2B98BF0146A4F13F03242B11607A4AFD
:1035A00000F2F5814FF478411160734806F004F899
:1035B0002146714805F0D4FF1EE5614D734805F0C2
:1035C000E5FE2B78072B3FF417AD192170480AF060
:1035D00003FF5D480BF0C0F823782B70C82005F07E
:1035E00051FC09E56B4805F0D1FE554B1A78092AC4
:1035F0005FD0227868481A7018210AF0EDFE524810
:10360000664D674C0BF0A8F8C82005F03BFC002184
:10361000644805F08DFD0021634805F089FD002117
:10362000624805F085FD6249624806F0F9F8624992
:10363000624806F0F5F86249624806F0F1F862491E
:10364000624806F0EDF86249624806F0E9F862491E
:10365000624806F0E5F86249624806F0E1F862481F
:1036600005F0A2F96148624A624B6349D0F80090C4
:10367000D5F800805C48156827680E681C6805F05E
:103680009DF949465D4805F0E3FE41465C4805F07A
:10369000DFFE39465B4805F0DBFE31465A4805F04F
:1036A000D7FE2946594805F0D3FE2146584805F073
:1036B000CFFE584B584A1B680A9358480A9913681A
:1036C0000068CB1A83427FF697AC116094E45448AB
:1036D00005F05CFE1A4B1A780A2A3FF48DAC22786A
:1036E00050481A7018210AF077FE17480BF034F88A
:1036F00082E4134D4C4805F049FE2B78082B3FF42B
:103700007BAC232149480AF067FE0F480BF024F8F0
:1037100023782B70C82005F0B5FB454B4548196848
:1037200005F096FE444B4548196805F091FE444B60
:103730004448196805F08CFE5EE400BF3C0AFF1F98
:10374000BDF4FF1F2C170100D40DFF1F241900200A
:1037500037800B6DE00400209C21FF1F2C0400200B
:10376000440400205C040020901700204C17010046
:10377000D00100206C08FF1FCC2CFF1FA0160100F9
:103780004008FF1FC42DFF1FF009FF1F5008FF1F37
:10379000C0180100D809FF1F70170100282DFF1F56
:1037A000BC180020B8F2FF1FD0F2FF1F24F3FF1F48
:1037B0008C170100FC2DFF1FC417010030170020DB
:1037C000D8170100142EFF1FF81701002C2EFF1F21
:1037D00014180100442EFF1F301801005C2EFF1F3B
:1037E0004C180100E80100202C0AFF1FE40500200E
:1037F000B4F2FF1F00F7FF1F742EFF1F6CF1FF1FB5
:1038000084F1FF1F9CF1FF1FB4F1FF1FCCF1FF1FDC
:1038100070F0FF1F341D0020680300200809FF1FFF
:10382000080AFF1FB41601009408FF1FDC180100EE
:10383000EC150020B0F6FF1F40ECFF1FC8F6FF1F7D
:10384000B00500204CECFF1F9E4805F09FFD9E4BED
:103850001A780B2A2DD022789C481A701B210AF066
:10386000BBFD9B489B4C0AF077FFC82005F00AFB84
:10387000994B9A48196805F0EBFD2168984805F0C6
:10388000E7FD4FF44371974805F0E2FD4FF4967160
:10389000954805F0DDFD2168944805F0D9FD944B6D
:1038A0009448196805F0D4FD934B9448196805F0C5
:1038B000CFFD934B934A1B6806939349069C13686C
:1038C0000968E31A8B427FF697AB31468F48146044
:1038D00005F0BEFD39468E4805F0BAFDFFF78CBBFA
:1038E0008C4805F053FD784B1A780D2A3FF484ABD1
:1038F00022781A70642005F0C5FA00218648874CAA
:1039000005F016FC0021864805F012FC00218548D0
:1039100005F00EFC8449854805F082FF84497E4805
:1039200005F036FC83497E4805F032FC82497D482B
:1039300005F02EFC217A012900F09C81022900F07B
:10394000A88119B90121774805F0F2FB7B4B7C482F
:10395000196805F07DFD61697A4805F079FDA16976
:10396000794805F075FD794B7948196805F070FDC7
:10397000784B7948196805F06BFD6169774805F067
:1039800067FDA169764805F063FDFFF735BB002CA4
:103990003FF432AB09E640F22371724805F00CFEA9
:1039A0002946714805F0DCFD21466E4805F0D8FD3A
:1039B000A9E5642303FB08F898FBF2F581E50020F4
:1039C000FFF7E0F90021694805F0B2FB40F6FB5132
:1039D000674805F051FF6749654805F021FF88E415
:1039E0000AA800210AF09EFF00230AA86249079353
:1039F0000693ADF820300BF051F806A90A2248468C
:103A00000DF056FA01460AA80BF048F85B4B5C4AE9
:103A10005C48A9F5E16903FB09F382FB0312DB179C
:103A2000C3EBA222D2B2012105F0B8FF41465648AD
:103A300005F00EFD0AA80AF035FFFFF781BA5348DA
:103A400004F0B2FF524B514800241C7004F0B6FF42
:103A500021460AA806940794ADF820400AF062FFB8
:103A60004C490AA80BF01AF84B4804F09DFF4B4B49
:103A700049481C6804F0A2FF0A2206A920460DF05E
:103A800017FA01460AA80BF009F80A99444805F00C
:103A9000C7FE0AA80AF006FFFFF757BA642303FB24
:103AA00008F898FBF4F4FFF7E6BB3E4928460BF014
:103AB00031F8002800F0D38001213B4805F038FBA5
:103AC000FFF775BA5409FF1FBDF4FF1F541701001B
:103AD000D40DFF1FC02EFF1F6808FF1FB405002074
:103AE000CC0500203CF3FF1FE8050020B0160020A5
:103AF0001008FF1FE4F3FF1F84ECFF1FD015002008
:103B0000341D0020680300200809FF1F0006002064
:103B1000C8F4FF1F2408FF1FDC2CFF1FD41800204F
:103B2000F42CFF1F0C2DFF1F8C170100501CFF1FD2
:103B3000A4180100A8180100B81801007409FF1F9B
:103B4000281900204019002058190020B808FF1F2C
:103B5000701900201C09FF1F88190020A0190020DF
:103B6000E4F4FF1FE00400209C21FF1F2C04002030
:103B700054F3FF1FA814010014170100404B4C0020
:103B80001F85EB519CEDFF1F78F6FF1F0C09FF1FEF
:103B900020160020181701007C08FF1F00F3FF1FEC
:103BA000DCF0FF1F442DFF1FE40300204D4804F00C
:103BB000FBFE4D4B4B4800241C7004F0FFFE2146D9
:103BC0000AA80AF0AFFE49490AA80AF067FF484868
:103BD00004F0EAFE474B46481C6804F0EFFE0A2258
:103BE00003A920460DF064F901460AA80AF056FF21
:103BF00041490AA80AF052FF3D4804F0D5FE3F4B68
:103C00003B481C6804F0DAFE0A2203A920460DF0A6
:103C10004FF901460AA80AF041FF0A99384805F011
:103C2000FFFD0AA80AF03EFEFFF75BBB35493648A8
:103C30000AF070FF10B30121344805F079FAFFF75C
:103C400077B9FFF7DBF800287FF4F5A9FFF773B920
:103C5000FFF7D4F800287FF49BAAFFF7F2BA2C49AB
:103C600028460AF057FF18B301212A4805F060FAE8
:103C7000FFF79DB9284805F05BFA67E6244922481A
:103C80000AF048FF08B30121224805F051FAFFF776
:103C90004FB90121214805F04BFA57E62946204843
:103CA00005F05EFC29461F4805F05AFCFFF714BBDF
:103CB00028461D490AF02EFF00283FF478A901216B
:103CC0001A4805F035FAFFF772B917490E480AF09D
:103CD00021FF00283FF42CA90121144805F028FAFF
:103CE000FFF726B90C09FF1F20160020D01601008F
:103CF0007C08FF1FE0F4FF1F5017010000F3FF1FB7
:103D0000D8ECFF1F442DFF1FC4180020E40300203F
:103D1000542DFF1FFC030020DC2CFF1FF42CFF1F81
:103D20002CF4FF1FBC2DFF1F642DFF1F1404002067
:103D300008B5FEF7DFFC012005F0A4F8FFF76EF8E8
:103D4000F9E700BF10B5054804F02EFE044B034808
:103D50001C7804F033FE204610BD00BF0C09FF1F85
:103D6000E0EAFF1F10B5054804F01EFE044B0348AF
:103D70001C7804F023FE204610BD00BF0C09FF1F75
:103D8000A816002070B51F4E0125012005F07AF815
:103D90001D2008F0F9FF002814BF012400240DD0D5
:103DA000A54209D0032118480AF016FB17480AF06B
:103DB000D3FC322009F020F82546E6E7032112481B
:103DC0000AF00AFB11480AF0C7FCA542F4D0022110
:103DD0000F480AF001FB0D480AF0BEFCFFF7B2FFE6
:103DE00018B1322009F008F8E3E7FFF7BBFF00281D
:103DF000F7D1084804F0D8FD01230648337004F0D9
:103E0000DDFDEEE7A817002040190100D40DFF1FCB
:103E1000381401000C09FF1F38B5222008F06CFB94
:103E20001B4B196802461B481829026029D0013132
:103E30001948196050F8215040F821201749184CB2
:103E40000B68184813445A1B84FB0234D317C3EB86
:103E5000E4040A6004F0A8FD134B12481C6004F04F
:103E6000ADFD124B0F481B68A342D4BFE41A0024D7
:103E700004F09AFD0E4B0B481C6004F09FFD204699
:103E800038BD054900200D6818600A60D6E700BFFC
:103E9000EC040020C0F4FF1FF80400202C2DFF1FAD
:103EA0001F85EB51C809FF1FE81500201008FF1FF0
:103EB000C4F4FF1F38B5232008F01EFB1B4B196804
:103EC00002461B480429026029D0013119481960B3
:103ED00050F8215040F821201749184C0B68184819
:103EE00013445A1B84FB0234D317C3EB64040A60E7
:103EF00004F05AFD134B12481C6004F05FFD124B96
:103F00000F481B68A342D4BFE41A002404F04CFD00
:103F10000E4B0B481C6004F051FD204638BD05498E
:103F200000200D6818600A60D6E700BFB8180020AE
:103F300014F2FF1FF8160020302DFF1F676666661B
:103F4000F408FF1FF018002084ECFF1FE804002095
:103F500038B56FF4AF73C21840F256239A4210D9A5
:103F60009738C6282FD92A4C2A4D23682868181A52
:103F700040F24B43984212DDB0F5FA6F33DB00207C
:103F800038BD254B224C234D01221A6008F010FF4A
:103F900023682860181A40F24B439842ECDC08F082
:103FA00007FF2368C01AB0F5617F17D209211B48AB
:103FB0000AF012FA04211A480AF01EFC18480AF006
:103FC000CBFB042038BD144B124D114C01221A605A
:103FD00008F0EEFE034623602868C8E72868181A30
:103FE000B0F5FA6FCBDA08F0E3FE2368C01AB0F53B
:103FF000FA6FC4D2092109480AF0EEF905210848F0
:104000000AF0FAFB06480AF0A7FB052038BD00BFFE
:104010004C18FF1F84170020F016002044190100DF
:10402000D40DFF1F2DE9F047012184B00D2008F0C9
:10403000B9FEDFF8BC80264FDFF8B890254E264D3C
:10404000264C08E002FB0EF24B1C92FBF3F32448D3
:10405000236004F0B3FC012004F014FF4FF0000EC5
:1040600001A903AB02AA1F48CDF804E0CDF808E08F
:1040700004F00AF91C4804F097FC029A019B1A48C4
:10408000C8F800203B6004F099FC0298FFF760FF3D
:10409000824698B9124804F087FC33682968029870
:1040A000C91A6429C3EB000E4FF06502CADCC31ABB
:1040B000642202FB03F292FBF1F3C8E70B4804F021
:1040C00073FC0A48C9F800A004F078FCE2E700BFDE
:1040D000E8150020C02EFF1F6808FF1FC42DFF1F1A
:1040E0004008FF1F18F2FF1FF409FF1FB809FF1F48
:1040F000C4F4FF1FD4ECFF1F10B504460021007864
:1041000008F08CFC207A002108F088FC207900213E
:10411000BDE8104008F082BC70B5847B82B03CB32F
:10412000846941698C4202D3002181738161154900
:10413000C46909680191019E0169341B8C4217D939
:104140001D4690F82030C6611146044693B1002305
:1041500080F82030007908F061FC2946207808F0CA
:104160005DFC0699207A08F059FCA3690133A3612C
:1041700002B070BD012380F82030FFF7BDFF02B010
:1041800070BD00BF341D002030B5044683B03548F3
:1041900004F00AFC257B334804F010FC012D3CD0D0
:1041A0001FD3022D1BD1637B022B10D02046FFF7BB
:1041B000A3FF237B637340F2DC51207908F02EFCCF
:1041C000082129480AF008F928480AF0C5FA00230E
:1041D00061690093204640F2DC52FFF79DFF03B077
:1041E00030BD637B002BFAD02046FFF785FF237B91
:1041F000637320784FF47A7108F010FC207A40F253
:10420000EE2108F00BFC082119480AF0E5F81748E0
:1042100003B0BDE830400AF09FBA637B012B15D094
:104220002046FFF769FF237B63734FF47A7120798F
:1042300008F0F4FB40F2EE21207A08F0EFFB0921B0
:104240000C480AF0C9F809480AF086FA40F2EE2351
:1042500061690093204600234FF47A72FFF75CFFF8
:1042600003B030BD0C09FF1F68190100D40DFF1FFA
:10427000501901005C19010008B5084804F094FBCE
:10428000074B064800221A7304F098FB012004F043
:10429000F9FD0348FFF778FFF8E700BF0C09FF1F9F
:1042A000CC16002008B505F035F862211E4804F050
:1042B000D5FE0C2008F052FD17211C480AF08CF89E
:1042C00002F002FE30B90E2119480AF085F81948AB
:1042D0000AF042FA1849194802F084FC18491748B4
:1042E00002F082FC1749184804F092F81749164862
:1042F00004F090F81349164804F08AF8134914485A
:1043000004F088F80F49134804F082F80F49114867
:1043100004F080F80B49104804F07AF80B490E4875
:10432000BDE8084004F076B88C1700208C19010015
:10433000A4190100D40DFF1F3926000048170020E2
:10434000512C0000150D000024160020ED0C00007B
:10435000C42EFF1F3021FF1F7404002008B5022166
:104360001C2008F01FFD0221272008F01BFD022160
:104370001D2008F017FD01210F2008F013FD0F206C
:10438000002108F0FBFCFFF78DFF024804F018FA4B
:10439000FEE700BF05050000704700BF70B51E486E
:1043A0001E4E1F4D04F000FB1E4B1F4A1A48126898
:1043B0001C6804F003FB21461C4803F04BFF3168E6
:1043C0002B78884238BF084640F6FA72904228BFE0
:1043D0001046044633B989B20022154804F044FE61
:1043E000204670BDFFF7AEFC88B9124D2B689C4289
:1043F00005D00246A1B20E4804F036FE2C60002C17
:10440000EED008F0D5FC0C4B1860204670BD2B7820
:10441000002BE5D13168DEE7F409FF1F7409FF1FA7
:104420003C08FF1FC4F4FF1FE815002018F2FF1F0F
:104430008C17002098EDFF1F28030020F0B5A44C36
:10444000A44EA54D9DB027460CE0012004F01AFDB6
:1044500009F05CFF2368C0B25A1C0A28E8542260A5
:1044600000F0258109F08EFF0028EED13378002B73
:1044700000F01B810522984998480CF02FF900287C
:1044800000F01A810522944995480CF027F904465A
:10449000002800F060820A228F4992480CF01EF931
:1044A00010B9914B01221A700A228B498F480CF0E7
:1044B00015F908B98C4B18700A2287498C480CF002
:1044C0000DF910B98B4B01221A700A2282498A48D1
:1044D0000CF004F908B9874B18700B227E49874805
:1044E0000CF0FCF8002800F028820B227A4984485E
:1044F0000CF0F4F80346002800F088820A2276497E
:1045000080480CF0EBF8002800F0A8810B227249DB
:104510007D480CF0E3F8002800F0A9810B226E49D9
:104520007A480CF0DBF8002800F0BB810B226A49C6
:1045300077480CF0D3F8002800F0CD810B226649B3
:1045400074480CF0CBF80446002800F0DD81052209
:10455000614971480CF0C2F810B9704B01221A7011
:1045600005225D496E480CF0B9F808B96B4B18701C
:10457000092259496B480CF0B1F808B96A4B186028
:104580000922554969480CF0A9F820B96849694AD7
:1045900001230B70137009224F4967480CF09EF8F5
:1045A00008B9634B187009224B4964480CF096F81F
:1045B00008B9634B18700922474962480CF08EF81D
:1045C00010B95F4B01221A70052243495E480CF076
:1045D00085F8A0B95D4840F6B73302E0002900F045
:1045E000BC821A0119468258013B002AF6D00023EA
:1045F0000A2257480AF0C0F855480AF0ADF80B22D5
:10460000354954480CF06AF8002800F0678203220C
:10461000314951480CF062F80446002800F0B0809F
:1046200006222D494D480CF059F80446002800F0A8
:10463000D280042228494A480CF050F8002800F0A3
:104640000A810322244947480CF048F8002800F06A
:10465000E4810822204944480CF040F80446002830
:1046600000F0908106221C4940480CF037F80028E1
:1046700000F09B81032218493D480CF02FF80028D8
:1046800000F0B881042214493A480CF027F8044697
:10469000002800F06981104A002313605360936082
:1046A000D36013615361137633701DB0F0BD0122E6
:1046B000002332703B60D5E61E4B2F4801241C704E
:1046C00004F072F92D4B2C481C7004F077F9D9E6F0
:1046D000AC160020BCF4FF1FA0F0FF1FB4190100AE
:1046E000BC190100C4190100FCF4FF1FD41901001A
:1046F000E4190100F108FF1FF4190100041A010078
:10470000281A01004C1A01005C1A0100901A0100DD
:10471000C01A0100F41A0100241B01003C08FF1F0D
:104720002C1B0100341B0100AC050020401B0100C4
:10473000881700202009FF1F4C1B0100581B010097
:104740005C050020641B0100701B0100482FFF1F47
:10475000D40DFF1F781B0100B81B0100DC1B0100FA
:10476000FC1B0100041C01000C1C0100481C010082
:10477000681C0100881C01000C09FF1FC0F0FF1F0E
:104780000B21B34809F028FEB24809F0E5FF06AA5C
:1047900005A904A802F0D0FF052800F0E081234617
:1047A0000499AC480A2209F0E7FFAA4809F0D4FFAF
:1047B00023460599A7480A2209F0DEFFA54809F01B
:1047C000CBFF23460A220699A24809F0D5FFA1484B
:1047D00009F0C2FF24E711219F4809F0FDFD9D4823
:1047E00009F0BAFF06AB009304AA05AB03A902A81F
:1047F00002F058FF052800F0BA8123460299954837
:104800000A2209F0B9FF934809F0A6FF234603994D
:1048100090480A2209F0B0FF8E4809F09DFF234618
:1048200004998C480A2209F0A7FF8A4809F094FFEE
:104830002346059987480A2209F09EFF854809F01A
:104840008BFF23460A220699824809F095FF81488A
:1048500009F082FFEDE6FBF777FFF2E67F4B804839
:10486000012240F6B8311A7002F0F6FA4EE67D4B9E
:104870007D48032420211C7009F0AEFD754809F025
:104880006BFF7A4B7A497B481C700AF0B9F87A487A
:1048900004F08AF8794B784801221A7004F08EF8F7
:1048A0003CE6704B764802241F211C7009F094FDF1
:1048B000684809F051FF6D4B72496E481C700AF050
:1048C0009FF86D4804F070F86C4B6B4801221A7029
:1048D00004F074F82AE6634B6B48012420211C7015
:1048E00009F07AFD5B4809F037FF604B6749614882
:1048F0001C700AF085F8604804F056F85F4B5E487B
:104900001C7004F05BF819E6564B61481C701E21C0
:1049100009F062FD4F4809F01FFF544B5D495548AF
:104920001C700AF06DF8544804F03EF8534B52489E
:1049300001221A7004F042F809E64F4804F034F8F6
:10494000554B4D4801221A7004F038F81121534894
:1049500009F042FDC9E5484804F026F8504B4648A6
:104960001C7004F02BF896E50E214E4809F034FD3A
:10497000384809F0F1FE4C4B186803F0EDFD4B4B45
:104980001C6088E60C214A4809F026FD314809F0F0
:10499000E3FE214606A809F0C5FF06A9454802F036
:1049A00063FB06A809F07EFF5CE61221424809F08D
:1049B00013FD284809F0D0FE06A90A223D4803F05D
:1049C00021F906AC1AAD2168224800230A2209F019
:1049D000D3FE0321394809F0FFFC61681D4800231C
:1049E0000A2209F0C9FE08341A4809F0B5FEA542AA
:1049F000E9D13FE61621324809F0EEFC154809F0EE
:104A0000ABFE294B186803F009FE3BE6224A2D480D
:104A10001370102109F0E0FC70E506A803F094F88B
:104A2000294B0193043B044600939DF81800274B43
:104A3000274A284902F0F4FE052C7FF40AAE0D2126
:104A4000254809F0C9FC034809F086FE01E600BFCD
:104A5000C01B0100D40DFF1FE81B0100D0ECFF1F9D
:104A6000482FFF1FC01800206C1A010044ECFF1FE4
:104A7000442DFF1FC41800200C09FF1FA0F2FF1FC8
:104A8000A01A0100542DFF1FD01A0100642DFF1F32
:104A9000041B0100342DFF1FFCF6FF1F141A010038
:104AA000C0F0FF1F901C0100280AFF1FAC0500206A
:104AB000181C0100281C0100541C010014170100DF
:104AC000701C0100381A0100EC1800201C09FF1F9F
:104AD000B808FF1F7409FF1FCC1B010012212848D2
:104AE000284C294D09F078FC284809F035FE0721AB
:104AF000274809F071FC2168244800230A2209F0A4
:104B00003BFE0521234809F067FC61681F4800232C
:104B10000A2209F031FE04211F4809F05DFCA1685A
:104B20001A4800230A2209F027FE04211B4809F035
:104B300053FCE168154800230A2209F01DFE1034D9
:104B4000124809F009FEA542D1D11221144809F0FA
:104B500043FC0E4809F000FE59E5114647E50D21DA
:104B6000104809F039FC094809F0F6FD58E50D2117
:104B70000C4809F031FC054809F0EEFD59E500BF8D
:104B8000881B0100482FFF1FC8EAFF1FD40DFF1F1D
:104B9000B0140100B8140100C01401009C1B0100F6
:104BA000A41B0100CC1B010008B5064C012004F039
:104BB00069F9FFF743FC2378002BF7D0FCF744F8A2
:104BC000F4E700BFFCF4FF1F10B50F4A0F4C10496B
:104BD00010480023136023700B6040F6B73200E0EA
:104BE00083B1110113464158013A0029F8D00A4A0D
:104BF0000A4813600C2109F0EFFB0948BDE810409A
:104C000009F0AABD0B46F2E7E0F4FF1FD0ECFF1F4E
:104C100000F3FF1F482FFF1F24190020A01C0100D4
:104C2000D40DFF1F10B5154B154C164800221A70F5
:104C300023461A605A609A60DA60103398424FF047
:104C40000001F6D1104A114B1160196040F6B732DD
:104C500000E083B1110113466158013A0029F8D0F0
:104C60000B4A0C4813600C2109F0B6FB0A48BDE85A
:104C7000104009F071BD0B46F2E700BFD0ECFF1FFA
:104C8000482FFF1FC8EAFF1F00F3FF1FE0F4FF1FBC
:104C900024190020A01C0100D40DFF1F10B53848B6
:104CA00040F6B73201E0002B68D01101134641589D
:104CB000013A0029F7D0334C33482360092109F029
:104CC0008BFB00230A222168304809F055FD2F484C
:104CD00009F042FD10212E4809F07EFB2B4809F017
:104CE0003BFD2C4B1B78032B10D8DFE803F03B0275
:104CF00028151821284809F06FFB244809F02CFDDD
:104D0000264B226818681E4901F0DAFF244BBDE8E3
:104D10001040186803F082BC1821224809F05CFB9F
:104D20001A4809F019FD204B22681868144901F04F
:104D3000C7FF1B4BBDE81040186803F06FBC17217C
:104D40001A4809F049FB114809F006FD184B226882
:104D500018680B4901F0B4FF114BBDE8104018680A
:104D600003F05CBC134B22681868054901F0A8FFEA
:104D70000B4BBDE81040186803F050BC0B469AE797
:104D8000482FFF1F24190020B01C0100D40DFF1F65
:104D9000BC1C0100C0180020041D0100EC08FF1F0E
:104DA000280AFF1FD01C0100E408FF1FEC1C0100B3
:104DB000E808FF1F0409FF1F10B50E21044617481D
:104DC00009F00AFB032C27D8DFE804F01D140B02BE
:104DD0001621134809F000FB1248BDE8104009F005
:104DE000BBBC1521104809F0F7FA0E48BDE8104089
:104DF00009F0B2BC16210D4809F0EEFA0948BDE8E9
:104E0000104009F0A9BC1421094809F0E5FA054849
:104E1000BDE8104009F0A0BC10BD00BF201D01007E
:104E2000301D0100D40DFF1F481D0100601D010051
:104E3000781D01002DE9F04FB04C226840F6B733E1
:104E40009A4285B008D9AE4B002018702060034606
:104E5000184605B0BDE8F08FAA4DD5F80080FDF7E3
:104E6000D7FE074638B3FDF7E3FE0646002842D0DA
:104E7000A54B22681B68A14F9A422ED92968A34BE3
:104E8000A348002489B222461C703C6004F0ECF870
:104E9000A04803F089FDA04B9E481C6003F08EFDE6
:104EA0009E4803F081FD9E4B9C4801221A7003F03E
:104EB00085FD0323CCE7994803F076FD994B97488D
:104EC0001E7803F07BFD012ECDD1904A276033463A
:104ED0001846177005B0BDE8F08F93488B4E03F06D
:104EE00063FD924B9048D3F8008003F067FD337860
:104EF000B3B90423ACE7894803F056FD894B8748D2
:104F00001F7803F05BFD022FB2D1804B80481E70EA
:104F10001FFA88F13246266004F0A6F8012397E7CD
:104F20003968834FDFF840E20B01FA184FF0000CAC
:104F3000906886F800C0704525D9012940F2C480E8
:104F4000FEF700FF002800F03C8107F031FF2368E6
:104F5000DFF8E8B17749DBF80020097807EB0313A5
:104F6000C2EB000A9B68C3EB0A09002940F02F81BD
:104F7000B9F1000FC0F2FE80FEF7E4FE002840F019
:104F8000B18121680B01FA18DFF8E0A1D2F804C062
:104F9000DAF80000DFF8D8E160459EF8002038BF5D
:104FA00060468146AAB1012A40F08C80012940F276
:104FB0009E80614B1B68984580F2F580002229880D
:104FC000534804F051F807F0F3FE5C4A02231060E6
:104FD0003EE7002900F02881574B1B68984580F276
:104FE0006D811FFA89F100224948554D04F03CF8C3
:104FF00007F0DEFE2168514B0131186021600B0182
:105000003B44DB68012B3CD0332B3AD0062B38D005
:10501000286803F009FB0C214A4809F0DDF9092151
:10502000494809F0D9F9236848481A010023B958BA
:105030000A2209F0A1FB0521454809F0CDF900231A
:105040000A224946414809F097FB404809F084FB91
:10505000354803F0A9FC23683E493F4A3248C1F86D
:1050600000901B01FB58136003F0A8FC2B4803F0D1
:105070009BFC3A4B294801221A7003F09FFC042341
:10508000E6E63748DFF89080FDF7C8FA214803F0DC
:105090008BFCD8F800601F4803F090FC1D4803F01B
:1050A00083FC01361B48C8F8006003F087FC1B48EE
:1050B00003F07AFC2B4B194801221A7003F07EFC96
:1050C0002168A5E71E4D9BE7DFF8A0A0D2F804C039
:1050D000DAF80000DFF898E060459EF8002038BF5D
:1050E00060468146002A3FF474AF012AEAD1124B90
:1050F0001B68984557DC01233370FAE690F6FF1FD2
:10510000C0F0FF1F7409FF1F241900202009FF1F92
:105110008C1700207C08FF1FE0F4FF1F0C09FF1F05
:105120000C1700208C08FF1FC809FF1FC4F4FF1FC5
:10513000482FFF1FF108FF1F9008FF1F48ECFF1FBB
:10514000280AFF1F641E0100741E0100D40DFF1FFA
:10515000B814010080ECFF1FF4040020ACF6FF1F20
:10516000A02CFF1F2016002000350C001C09FF1F7B
:105170005C050020864B1B68984580F2BB800123AC
:10518000844985483370FDF709FA844B82481B68CF
:105190000393039900230A2209F0EEFA7E4809F0EE
:1051A000DBFA042354E61FFA89F100227C487D4D86
:1051B00003F05AFF07F0FCFD7B4B216818600B01E0
:1051C0001EE702462988764803F04EFFBDE6774980
:1051D0007148FDF7E3F900230A22DBF800106E485E
:1051E00009F0CAFA72496C48FDF7D8F9714B6A4860
:1051F0001A68714B03EB0212002391680A2209F02E
:10520000BBFA6E496448FDF7C9F9514600230A22EA
:10521000614809F0B1FA6A495F48FDF7BFF94946AC
:105220005D4809F0E9FAA3E6DFF8B081654803F0CC
:10523000BBFBD8F80050634803F0C0FB042D04D03A
:10524000FDF780FD00283FF456AF5F495248DFF874
:10525000A091DFF864B1534DFDF7AEF95B4803F060
:10526000A3FB5B4B594800261E7003F0A7FBFFF71A
:10527000ABFC99F80000FFF79FFD584640F6B831A7
:1052800001F0EAFD534B99F8002040F6B83158463A
:1052900002F05CF80190286803F0F4F9286803F044
:1052A0005BF999F80000FFF787FD019B012B39D0CE
:1052B00049493948FDF780F90123C9E5414803F020
:1052C00073FB464B3F4800241C6003F077FB2246EB
:1052D0002988334803F0C8FE07F06AFD324A0123EB
:1052E0001060B5E501233E492B483370FDF764F9A2
:1052F0000423ADE5334803F057FB384B3148002415
:105300001C6003F05BFB22462988254803F0ACFEB5
:1053100007F04EFD3349CBF800001F48FDF74CF96C
:10532000012395E530491C48FDF738F9294A1A4808
:10533000116833460A2209F01FFA174809F00CFADF
:105340002368DAF80010164826600BEB031B324680
:10535000DBF804308B4238BF0B4699B2994603F014
:1053600083FE23680133236007F022FD0E4B186093
:10537000144803F019FB1348C8F8006003F01EFB43
:105380001A490548FDF718F921680B0138E600BFF6
:105390009008FF1FD81D0100D40DFF1F341D0020F1
:1053A0008C170020280AFF1F48ECFF1F901D0100EA
:1053B000A81D010090F6FF1F482FFF1FBC1D010014
:1053C000C81D0100B809FF1F801E01000C09FF1F46
:1053D000C82CFF1F2419002020250100D4ECFF1F3A
:1053E000001E0100E41D0100141E0100341E010016
:1053F00044ECFF1F2DE9F043A848A94EA94D83B006
:1054000003F0D2FAA84AA94BA448126832681B6874
:1054100003F0D4FAA64803F0C7FA2C78A44803F0A6
:10542000CDFA631E052B6AD8DFE813F0A100CE0089
:10543000B60106007E016C009E4C2378042B23D01D
:105440009D4B9E48002622211E6008F0C5FF9C4807
:1054500009F082F9042303229A4923701C2007F0E3
:105460000BFA2021984808F0B7FF954809F074F925
:10547000964A974B118897481E70324603F0F4FD08
:105480009549964801F0AEFBFEF788FF0446884830
:1054900003F08AFA924B86481C6003F08FFA844826
:1054A00003F082FA8F4B824800241C7303F086FAC3
:1054B0008D4B02A81A7800F8012D1C7003F038F902
:1054C000FDF796FB002840F0F481FDF7A1FB0028D2
:1054D00040F0DF81FDF7ACFB002840F01F82FDF7B4
:1054E000F1FB002840F00E82FDF7FCFB38B170485C
:1054F00003F05AFA06236E482B7003F05FFA03B0EC
:10550000BDE8F0836B4C2378062B08D00D2177483B
:1055100008F062FF6A4809F01FF9062323707448F7
:1055200003F042FA7248336803F048FA714803F016
:105530003BFA714B6F481B6803F040FAFEF76CFCB6
:10554000FEF7B8FCFDF7CEFB002800F0F7816B48B2
:1055500003F02AFA624B69481C6803F02FFAA1B2E3
:1055600000225C4803F080FD03B0BDE8F083514C9D
:105570002378012B16D02B21614808F02DFF5048CD
:1055800009F0EAF858495F4B002201261A600E70B4
:1055900007F00EFC5C4B4B49186003221C20267060
:1055A00007F06AF9FFF746FC032800F0078101289D
:1055B00000F01A820028A2D11421544808F00CFFF0
:1055C0003F4809F0C9F89AE73A4C2378022B3AD0C1
:1055D00026214F4808F000FF394809F0BDF8424A3B
:1055E000484B01274FF000091770C3F8009007F0EF
:1055F000DFFB454B4FF002081860464884F80080F6
:1056000003F0D2F9444B4348C3F8009003F0D6F9B5
:1056100003222C491C2007F02FF9254803F0C4F978
:10562000304B234883F80C8003F0C8F9202126482A
:1056300008F0D2FE224809F08FF8254B3749274859
:105640001F7001F0CFFAFFF7F5FB0328044600F0C6
:10565000B081012800F082810028ADD002287FF4BB
:105660004EAF134803F0A0F92D4B114800221A70D9
:1056700003F0A4F91C2007F07BF90D4803F094F91E
:1056800004230B482B7003F099F90F21254808F0EB
:10569000A3FE0B4809F060F831E700BFF409FF1FD3
:1056A000C4F4FF1F8C08FF1FE8150020F01800202D
:1056B0000C09FF1F28170020A4EDFF1F901E0100FA
:1056C000D40DFF1F6D040000641601007409FF1F54
:1056D000780500208C17002039260000481700208C
:1056E0002C170020CC1600202009FF1F24200100C9
:1056F000C809FF1FF408FF1FE8040020C808FF1FA7
:10570000481F010090F6FF1F48ECFF1FA01F01007B
:10571000B81F0100B809FF1FD4ECFF1F2D5F000068
:10572000F0040020E01F0100B84F3B78052B5ED14C
:10573000B74EB84CDFF83883FEF730FE0746B64860
:1057400003F032F9B54BB4481F6003F037F9404617
:10575000FCF756FF002840F0C380B14803F024F95D
:105760003168206802F078FE206802F0C1FEAC4883
:1057700003F024F9FDF73CFA002840F0AA80A6487F
:1057800003F012F90423A4482B7003F017F9FFF774
:1057900085FA03B0BDE8F0839C4E3478022C67D0C4
:1057A000042C5BD0FDF744FAC0B19B4803F0FCF831
:1057B000022399482B7003F001F9A0E616219948BD
:1057C00008F00AFE984808F0C7FF934803F0ECF889
:1057D000964B914800221A7003F0F0F88E4803F0BF
:1057E000E3F804238C482B7003F0E8F887E62421C3
:1057F0008F48874EDFF87C82864C08F0EDFD8A48A2
:1058000008F0AAFF8B4A05234FF00009C2F8009068
:105810003B70FFF707FAC6F8009007F0C9FA864B0D
:105820008649186003221C2007F026F87A4803F006
:10583000BBF80127784888F80C7003F0BFF8764869
:1058400003F0B2F80323744888F80E70C8F81430D7
:1058500003F0B4F8206802F015FF6BE719217848CF
:1058600008F0BAFD704808F077FF0323337099E71A
:105870001521744808F0B0FD6B4808F06DFF032354
:105880006548337003F090F863482C7003F096F885
:1058900088E7614803F088F801235F482B7003F024
:1058A0008DF82421684808F097FD5F4808F054FF00
:1058B00010E6594803F078F8052357482B7003F099
:1058C0007DF82121614808F087FD574808F044FF22
:1058D000FBE53846FCF724F900287FF410AE4EE7CC
:1058E0004D4803F061F800234B4888F8013003F07D
:1058F00065F8504A564B126803EB0213DA6801321E
:10590000DA602AE7444803F04FF8524B424800223D
:105910001A7003F053F8FFF785F9E5E53E4803F008
:1059200043F803233C482B7003F048F81E214A48F3
:1059300008F052FD3C4808F00FFFD0E5364803F070
:1059400033F8042334482B7003F038F8132143480C
:1059500008F042FD344808F0FFFEF8E52E4803F059
:1059600023F83F4B2C4800221A7003F027F81C2024
:1059700006F0FEFF3B4803F017F83A48366803F09C
:105980001DF8394B1B689E42BFF6B9AD224803F0A3
:105990000BF8042320482B7003F010F82046FDF785
:1059A000F1F91221314808F017FD1F4808F0D4FE24
:1059B000A5E516211B4808F00FFD1B4808F0CCFE9A
:1059C000154802F0F1FF264B134801221A7002F02D
:1059D000F5FF1C2006F0CCFF0F4802F0E5FF0E4853
:1059E0002C7002F0EBFF8AE50B4802F0DDFF0F4B55
:1059F000094800221A7002F0E1FF074802F0D4FFC4
:105A0000042305482B7002F0D9FFCAE728170020AD
:105A1000AC050020280AFF1F0C09FF1F2C170020CF
:105A20007809FF1F741F0100D40DFF1FC0F0FF1F76
:105A3000201F0100A4EDFF1FE02DFF1F6D040000DB
:105A4000F01F01000C200100D81E0100B41E01004F
:105A5000482FFF1FD0ECFF1F001F01003420010062
:105A6000F0040020C809FF1F9008FF1F8C1F0100D1
:105A7000A02CFF1FCC16002030B585B001F0FCF93A
:105A80004A494B48FCF78AFD4A4A4B4B12784B482F
:105A900040F6B83101F05AFC68B1022878D00328EA
:105AA00071D0012818D004280AD0FFF7A3FC0120E8
:105AB00003F0E8F9F9E742493D48FCF77DFDF4E7DA
:105AC0003E4A40F6B73000E09BB101010346515811
:105AD00001380029F8D00DE0384A40F6B73001E02F
